:10000000F8FF002011040000C3CE0000C3CE0000A2
:10001000C3CE0000C3CE0000C3CE0000C3CE00009C
:10002000C3CE0000C3CE0000C3CE0000C3CE00008C
:10003000C3CE0000C3CE0000C3CE0000C3CE00007C
:10004000C3CE0000C3CE0000C3CE0000C3CE00006C
:10040000FFFFFFFFFFFFFFFFFFFFFFFFFEFFFFFFFD
:1004100062B611F07FFEFEE7012110F01F0291404D
:100420005C4A40B2430942F823107047012110F0A2
:100430001F029140584A40B2430942F823107047C6
:1004400030B4030009B2554801600020544C2060CC
:100450000020544C20600020534C20600020534C5E
:10046000206012B2524802605148006812B209B2CC
:10047000541A641CA0422BDB494800684C4C246889
:100480002018474C206047480068494C246833F9DD
:1004900014400019434C206043480068444C2468D1
:1004A000434D2D6805FB04003F4C20603F48006829
:1004B0003F4C24683E4D2D6833F9155005FB040070
:1004C0003A4C20603A480068401E394C2060CBE727
:1004D000334890ED000AB8EEC00A3048D0ED000A6B
:1004E000F8EEE00A80EE200A324880ED000A2D483E
:1004F00090ED000AB8EEC00A2848D0ED000AF8EEE8
:10050000E00A80EE200A2C4880ED000A264890ED93
:10051000000AB8EEC00A2148D0ED000AF8EEE00A61
:1005200080EE200A254880ED000A204890ED000A60
:10053000B8EEC00A1948D0ED000AF8EEE00A80EEE5
:10054000200A1F4880ED000A1A4890ED000A1A4858
:10055000D0ED000A1A4890ED001A00EE601AB2EED3
:10056000040A21EE000A1348D0ED000A114890ED6C
:10057000001A1248D0ED001A40EEC11A80EE210A8E
:10058000BDEEC00A0F4880ED000A0E48006830BC7E
:100590007047000000E100E080E100E02834FF1F28
:1005A0000434FF1F0834FF1F0C34FF1F1034FF1FDB
:1005B000982EFF1F1434FF1F1834FF1F1C34FF1F19
:1005C0002034FF1F2434FF1FF8B5DFF8180E007821
:1005D00003284AF08E830420DFF8081E08705FF0BD
:1005E000FF30DFF8041E08605920FFF715FF0120D7
:1005F000DFF8F01D08700BF095F80120DFF8EC1D16
:1006000008700120DFF8E81D08700020DFF8E41D05
:1006100008700020DFF8E01D08702720DFF8DC1DDF
:1006200008702720DFF8D81D0870DFF8D80D007893
:1006300000282FD1DFF8D00D007801284ED1DFF847
:10064000CC0D0078002810D0012847D1DFF8C00D6C
:10065000DFF8C01D096850F82100DFF8BC1DDFF885
:10066000B42D126841F8220038E0DFF8A40DDFF85D
:10067000A41D096850F82100002801D1012000E0E4
:100680000020C0B2DFF8901DDFF8882D126841F815
:10069000220023E0DFF8740D0078002810D0012834
:1006A0001CD1DFF86C0DDFF86C1D096850F82100D3
:1006B000DFF8641DDFF85C2D126841F822000DE0C0
:1006C000DFF84C0DDFF84C1D096850F82100DFF809
:1006D000481DDFF8402D126841F82200DFF83C0D7C
:1006E000B0F90000092808DA0020DFF8001D0870C2
:1006F0000820DFF8281D08800DE0DFF8200DB0F994
:100700000000BF2807DB0020DFF8E41C0870BF20D2
:10071000DFF8081D0880DFF8D40C007801285AD1D2
:10072000DFF8FC0C0078DFF8FC1C097891F001017F
:100730000843C0B200284ED1DFF8E00CB0F9000049
:10074000DFF8E41C0860DFF8E00C0068082842DBF2
:10075000DFF8D80CDFF8D01C0968081841F678617A
:10076000085CDFF8C81CDFF8C02C1268511841F68D
:100770007162515C401A332821DBDFF8B00CDFF8DE
:10078000A81C0968081841F67861085CDFF89C1C11
:10079000DFF8942C1268511841F67062515C401ACF
:1007A00033280CDBDFF8800C0068C01FDFF8601E08
:1007B000A1F84E000120DFF83C1C08700BE000207F
:1007C000DFF8301C0870DFF8600C0068401EDFF8AE
:1007D000581C0860B7E7DFF8180C007801285AD1D8
:1007E000DFF83C0C0078DFF83C1C097891F001013F
:1007F0000843C0B200284ED1DFF8200CB0F9000049
:10080000DFF8241C0860DFF8200C0068C02842DAFA
:10081000DFF8180CDFF8101C0968081841F6786139
:10082000085CDFF8081CDFF8002C1268511841F64C
:100830007F62515C401A332821DBDFF8F00BDFF8D0
:10084000E81B0968081841F67861085CDFF8DC1BD2
:10085000DFF8D42B1268511811F5F4510978401AB9
:1008600033280CDBDFF8C00B0068C01DDFF8A41DC7
:10087000A1F84E000120DFF8801B08700BE000207B
:10088000DFF8741B0870DFF8A00B0068401CDFF86D
:10089000981B0860B7E7DFF8540B0078012871D186
:1008A000DFF87C0B0078DFF87C1B097891F0010100
:1008B0000843C0B2002865D00020DFF86C1B086038
:1008C000DFF8580BB0F900000938DFF85C1B096845
:1008D000884257DBDFF8540BDFF84C1B0968081817
:1008E00041F67F61085CDFF8441BDFF83C2B12689F
:1008F000511841F67862515C401A332836DBDFF834
:100900002C0BDFF8241B0968081810F5F450007848
:10091000DFF8181BDFF8102B1268511841F67962C6
:10092000515C401A332821DBDFF8000BDFF8F81A9E
:100930000968081841F68161085CDFF8F01ADFF8F1
:10094000E82A1268511841F67A62515C401A33283D
:100950000CDBDFF8D40A0068C01DDFF8B41CA1F876
:100960004E000120DFF88C1A08700BE00020DFF841
:10097000841A0870DFF8B00A0068401CDFF8A81A73
:1009800008609DE7DFF8680A0078012871D1DFF878
:10099000900A0078DFF88C1A097891F00101084379
:1009A000C0B2002865D0C720DFF87C1A0860DFF8E5
:1009B000780A0068DFF8641AB1F90010093188423A
:1009C00057DBDFF8680ADFF8601A0968081841F693
:1009D0007161085CDFF8541ADFF84C2A126851186C
:1009E00041F67862515C401A332836DBDFF83C0A66
:1009F000DFF8341A0968081841F67061085CDFF8FE
:100A00002C1ADFF8242A1268511841F67762515CDB
:100A1000401A332821DBDFF8140ADFF80C1A0968C2
:100A2000081841F66F61085CDFF8001ADFF8F82952
:100A30001268511841F67662515C401A33280CDB7B
:100A4000DFF8E4090068C01FDFF8C81BA1F84E00FA
:100A50000120DFF8A41908700BE00020DFF89819D6
:100A60000870DFF8C4090068401EDFF8BC19086090
:100A70009DE7DFF880090078012818D1DFF87809B0
:100A80000078002813D1DFF8880BB0F84E009430BE
:100A9000DFF8801BA1F84E00DFF8780BB0F94E00AC
:100AA000C82804DAC820DFF86C1BA1F84E00DFF874
:100AB00044090078002818D1DFF83C0900780128A3
:100AC00013D1DFF8500BB0F84E009438DFF8401B1C
:100AD000A1F84E00DFF8380BB0F94E00012804DB16
:100AE0000020DFF82C1BA1F84E00DFF8280BB0F92E
:100AF0004E00DFF81C1BB1F94E100818022190FBC4
:100B0000F1F0DFF8481EA1F84E00DFF8400EB0F813
:100B10004E00DFF808190880DFF8D80800780128AF
:100B200040F0D580DFF8F8080078DFF8F818097889
:100B300091F001010843C0B2002840F0C880262689
:100B4000002E00F1C4802820DFF8041E0860DFF8C2
:100B5000000E0068002800F1AE80DFF8B40A10EB48
:100B60004600B0F90200DFF8E81D096801FA80F0DC
:100B70001B38002800F19780DFF8940A10EB46003C
:100B8000B0F90200DFF8C81D096801FA80F01438D6
:100B9000C82880F28880DFF89408C82101FB06008D
:100BA000DFF86C1A11EB4601B1F90210DFF8A02D45
:100BB000126802FA81F1081810F8140CDFF86C18AA
:100BC000C82202FB0611DFF8482A12EB4602B2F9EE
:100BD0000220DFF87C3D1B6803FA82F2511811F8FD
:100BE0001B1C401A0AF098FE02000B0014001D00A6
:100BF000D6F127000AF090FE5FF03332DFF8543D63
:100C00000AF0A2FE02000B000020DFF84C1D0AF0E3
:100C10007DFF22002B000BF039F840D2DFF80C08E2
:100C2000C82101FB0600DFF8E81911EB4601B1F914
:100C30000210DFF81C2D126802FA81F1081810F872
:100C4000140C97282BDBDFF8E407C82101FB060012
:100C5000DFF8BC1911EB4601B1F90210DFF8F02CF6
:100C6000126802FA81F1081810F81B0C962816DA9F
:100C7000DFF89C0910EB46004088DFF8D41C0968B7
:100C800008181B38DFF8881921F816000120DFF852
:100C9000CC1C08700020DFF8681708700BE00020FB
:100CA000DFF8B81C0870DFF8A80C0068401EDFF8F9
:100CB000A01C08604BE7DFF8A40C0078002804D1E2
:100CC000701CDFF83C17087001E0761E38E7DFF88B
:100CD00028070078012840F0D580DFF84407007825
:100CE000DFF84017097891F001010843C0B20028ED
:100CF00040F0C8802626002E00F1C4800020DFF8D6
:100D0000501C0860DFF8480C0068292880F2AE808B
:100D1000DFF8000910EB4600B0F90200DFF8301CE4
:100D2000096801FA80F01438002800F19780DFF894
:100D3000E40810EB4600B0F90200DFF8141C096863
:100D400001FA80F00D38C82880F28880DFF8DC06D0
:100D5000C82101FB0600DFF8BC1811EB4601B1F910
:100D60000210DFF8EC2B126802FA81F1081810F873
:100D7000140CDFF8B816C82202FB0611DFF894281D
:100D800012EB4602B2F90220DFF8C43B1B6803FAFB
:100D900082F2511811F80D1C401A0AF0BDFD020034
:100DA0000B0014001D00D6F127000AF0B5FD5FF01E
:100DB0003332DFF8A03B0AF0C7FD02000B00002031
:100DC000DFF8941B0AF0A2FE22002B000AF05EFF5F
:100DD00040D2DFF85806C82101FB0600DFF83418BE
:100DE00011EB4601B1F90210DFF8642B126802FA28
:100DF00081F1081810F8140C97282BDBDFF82C066B
:100E0000C82101FB0600DFF80C1811EB4601B1F90F
:100E10000210DFF83C2B126802FA81F1081810F872
:100E20000D0C962816DADFF8EC0710EB4600408828
:100E3000DFF81C1B096808180D38DFF8D81721F8EF
:100E400016000120DFF81C1E08700020DFF8AC152A
:100E500008700BE00020DFF80C1E0870DFF8F00AC5
:100E60000068401CDFF8E81A08604BE7DFF8F40D73
:100E70000078002804D1701CDFF88015087001E0AC
:100E8000761E38E7DFF86C050078012840F0D58041
:100E9000DFF88C050078DFF88C15097891F00101F6
:100EA0000843C0B2002800F0C8802626002E00F1BA
:100EB000C4800020DFF8981A0860DFF8940A006800
:100EC000292880F2AE80DFF8480710EB4600B0F921
:100ED0000200DFF87C1A096801FA80F00D38C82892
:100EE00080F29780DFF8280710EB4600B0F9020087
:100EF000DFF85C1A096801FA80F01438002800F164
:100F00008880DFF82805C82101FB0600DFF80017FC
:100F100011EB4601B1F90210DFF8342A126802FA27
:100F200081F1081810F80D0CDFF80015C82202FB3B
:100F30000611DFF8DC2612EB4602B2F90220DFF8D8
:100F4000103A1B6803FA82F2511811F8141C401A67
:100F50000AF0E2FC02000B0014001D00D6F127008D
:100F60000AF0DAFC5FF03332DFF8E8390AF0ECFC23
:100F700002000B000020DFF8E0190AF0C7FD220094
:100F80002B000AF083FE40D2DFF8A004C82101FB49
:100F90000600DFF87C1611EB4601B1F90210DFF80C
:100FA000B029126802FA81F1081810F80D0C972880
:100FB0002BDBDFF87804C82101FB0600DFF85016B0
:100FC00011EB4601B1F90210DFF88429126802FA28
:100FD00081F1081810F8140C962816DADFF830069C
:100FE00010EB46004088DFF86819096808180D38CA
:100FF000DFF81C1621F816000120DFF860190870D0
:101000000020DFF8FC1308700BE00020DFF84C191B
:101010000870DFF83C090068401CDFF834190860EC
:101020004BE7DFF838090078002804D1701CDFF89E
:10103000D013087001E0761E38E7DFF8BC030078B3
:10104000012840F0D080DFF8D8030078DFF8D4130F
:10105000097891F001010843C0B2002800F0C38074
:101060002626002E00F1BF802820DFF8E418086053
:10107000DFF8DC080068002800F1AA80DFF894059A
:1010800010EB4600B0F90200DFF8C418096801FA55
:1010900080F01B38002800F19380DFF8780510EB12
:1010A0004600B0F90200DFF8A818096801FA80F0DC
:1010B0001438C82880F28480DFF87003C82101FB4F
:1010C0000600DFF8501511EB4601B1F90210DFF808
:1010D0008028126802FA81F1081810F81B0CD34915
:1010E000C82202FB0611DFF82C2512EB4602B2F9EA
:1010F0000220DFF85C381B6803FA82F2511811F8FD
:10110000141C401A0AF008FC02000B0014001D0019
:10111000D6F127000AF000FC5FF03332DFF83438F4
:101120000AF012FC02000B000020DFF82C180AF075
:10113000EDFC22002B000AF0A9FD3DD2BB48C821DE
:1011400001FB0600DFF8CC1411EB4601B1F90210E7
:10115000DFF8FC27126802FA81F1081810F81B0C5E
:10116000972829DBB148C82101FB0600DFF8A41449
:1011700011EB4601B1F90210DFF8D427126802FA28
:1011800081F1081810F8140C962815DADFF8840499
:1011900010EB46004088DFF8B817096808181B38BC
:1011A000DFF8701421F816000120DFF8B81A087073
:1011B0000020924908700BE00020DFF8A81A0870A0
:1011C000DFF88C070068401EDFF8841708604FE7DF
:1011D000DFF8900A0078002803D1701C8749087056
:1011E00001E0761E3DE78F480078002812D1DFF835
:1011F000300D0068DFF82C1DB1F90010DFF8282D44
:10120000B2F900205118022291FBF2F10818DFF820
:10121000101D0860DFF8140D0068002845D18148D2
:101220000078002841D17948007801280DD1DFF8F5
:10123000F00C006840F21551884206DB0120794924
:1012400008700020DFF8D81C08607048007800287B
:1012500024D1DFF8DC0C0088B0F5167F0DDBDFF859
:10126000D00C008840F6B931884206DADFF8C40CA9
:101270000068DFF8C41C088003E00020DFF8B81C19
:101280000880DFF89C0C0068B0F5E16F06DD0120F6
:10129000644908700020DFF8881C0860DFF8AC069D
:1012A000B0F94E00DFF8941C0860DFF8800C00688D
:1012B000012840F0D9805B480078002840F0D480B5
:1012C00052480078002840F0CF80002108002621F5
:1012D000554A116054490968132913DBDFF81C1EB5
:1012E000514A1268511811F8131CCA4A4E4B1B6818
:1012F00032F9132002FB01004B490968491E4A4A92
:101300001160E7E7D22190FBF1F11439DFF82C2CC2
:101310001160DFF8EC1D0968002903D10021DFF816
:10132000182C1180DFF8D81D096801291BD1DFF8BE
:10133000001C0988B1F5167F11DBDFF8F41B098862
:1013400040F6C41291420ADADFF8E81B0968DFF8B8
:10135000E82B11800221DFF8A82D116003E00021A5
:10136000DFF8D42B1180DFF8B81B0968B1F57A6F6C
:1013700007DD0021DFF8A82B11600321DFF8802DA5
:101380001160DFF87C1D096803295BD11F490978CA
:10139000002957D117490978002949D12721224A24
:1013A000116021490968132915DB9A491E4A126800
:1013B00031F81210DFF8E02D1B4B1B689A5C891A7C
:1013C000934A194B1B6822F8131017490968491EE4
:1013D000154A1160E5E7DFF85C1B0968DFF8582B58
:1013E00011802FE03804FF1FA0B00440BE43FF1F50
:1013F0003C04FF1FBA43FF1FBB43FF1FB843FF1F3F
:10140000B943FF1FB40CFF1F7C04FF1F1004FF1F14
:10141000C80CFF1F8004FF1FB02FFF1F3A04FF1FDF
:10142000EA43FF1F8C04FF1F982EFF1F080FFF1FAA
:101430000121DFF8682D1170DFF8F81A0968DFF86C
:10144000F82A1180DFF8541D097800290CD0DFF844
:10145000501D0978002907D10521DFF8482D1170AA
:101460000121DFF83C2D1170DFF8300D00780028E5
:1014700038D1DFF8340D0068DFF82C1D4860DFF844
:10148000BC0A0068D0F16400DFF81C1D0860DFF8BA
:10149000180D90ED000AB8EEC00ADFF8100DD0ED7F
:1014A000000A9FEDBB1A00EE201A11EE100A0AF096
:1014B00005FC04000D00DFF8F00C0068DFF8E81C04
:1014C0004968401A0AF028FA0022DFF8E43C0AF0E2
:1014D0003BFA22002B000AF019FC0AF08BFCDFF823
:1014E000D41C0880DFF8B40C0078002809F0588379
:1014F0000020DFF8C41C0860DFF8C00C0078012869
:1015000040F09780DFF8980C0078012840F0918037
:1015100011200F28C0F28080DFF8201A0968DFF858
:10152000782C825C022392FBF3F2891ADFF82024E4
:101530001160DFF8081A0968DFF85C2C825C02236E
:1015400092FBF3F25118DFF80824126891424FDB46
:10155000DFF8D41DC82202FB0011DFF8F423126863
:10156000515CDFF8C42DC82303FB0022DFF8E03311
:101570001B689A18D278891A332933DBDFF8A81D43
:10158000C82202FB0011DFF8C8231268515CDFF8A3
:10159000982DC82303FB0022DFF8B4331B689A1888
:1015A0001279891A33291DDBDFF87C1DC82202FB62
:1015B0000011DFF89C231268515C972912DBDFF8D9
:1015C000681DC82202FB0011DFF88423126851183D
:1015D000C978962906DADFF8E01B0968491CDFF8AC
:1015E000D82B1160DA490968491CD94A1160A0E773
:1015F000DFF8C41B09681A2904DB0121DFF8442D38
:10160000117003E00021DFF83C2D1170401E80E7CF
:10161000A42EFF1F6842FF1FDFF8280D0078002866
:1016200007D00120DFF8201D08700620DFF8741BAA
:101630000870DFF8140D0078002817D0DFF8600B71
:101640000078012812D1DFF8040D0068DFF8D41803
:10165000B1F90010DFF8D028B2F9002051180222A9
:1016600091FBF2F10818DFF8E41C08600020DFF8B5
:10167000E01C08700020DFF8DC1C0860DFF8D80CE4
:1016800000781E2805DADFF8D40C00781E28C0F296
:101690006F81DFF8C80C0078DFF8BC1C0978401AAD
:1016A0000AF0D4FB0B2880F26381DFF8B40C0078D9
:1016B000002840F05D81DFF8AC0C0078012840F094
:1016C0005781DFF8980C0078DFF88C1C0978884285
:1016D00006D3DFF8840C0078DFF88C1C087005E076
:1016E000DFF8780C0078DFF8801C0870DFF84C0811
:1016F0004068002804D4DFF844084068C82849DB63
:10170000DFF8580C0078272814D0DFF84C0C00784C
:1017100027280FD0DFF8540CB0F94E00DFF8501C2A
:10172000B1F94E100818022190FBF1F0DFF8441CCB
:1017300008603FE0DFF8240C007827280DD1DFF89F
:10174000180C0078272808D0DFF8240CB0F94E00D8
:101750006430DFF8201C08602CE0DFF8FC0B007818
:1017600027280DD1DFF8F40B0078272808D0DFF800
:10177000FC0BB0F94E006438DFF8F81B086019E084
:10178000DFF8F40BB0F90000DFF8E81B086011E0A7
:101790000000BF43DFF8A407406800280AD4DFF840
:1017A0009C074068C82805DADFF890074068DFF832
:1017B000C41B08600020DFF8C41B0860DFF8E009E4
:1017C000007801283FD1DFF88C0B006800283AD15F
:1017D0002720DFF8AC1B0860DFF8A40B00680328A3
:1017E00031DBDFF8440BDFF8981B0968C82202FBE5
:1017F0000100DFF8801B0968085CDFF82C1BDFF8AC
:10180000802B1268C82303FB0211DFF8682B1268D3
:101810005118B1F516710978401A332807DBDFF843
:10182000600B0068C01EDFF85C1B08600BE0002046
:10183000DFF8501B0860DFF8480B0068401EDFF837
:10184000401B0860C8E7DFF8200B0078401E4049C5
:1018500008603F480068DFF8101B0978091F8842BC
:10186000C0F286800020DFF8201B08700020DFF81F
:10187000101B0860DFF8080B0068C8281BDADFF8C7
:10188000A80A33490968C82202FB0100DFF8F01AF0
:101890000968085C972806DBDFF8EC0A0078401C32
:1018A000DFF8E41A0870DFF8D80A0068401CDFF897
:1018B000D01A0860DEE7DFF8D00A0078C3280ADB18
:1018C0000020DFF8C41A0870DFF8B00A0068401C76
:1018D000DFF8A81A0860DFF8A40A006802283FDBD6
:1018E000DFF8700A0068002825D1DFF8B408007816
:1018F000012817D1DFF88C0A0068D0F12700DFF843
:101900008C1A0860DFF8840A00680AF09FFA1A2827
:1019100011DB0120DFF8381A08700120DFF8341AD3
:10192000086008E0DFF878080078002803D101207B
:10193000DFF8201A0860DFF81C0A0068022803D1CB
:101940000320DFF8101A086012E000BF482EFF1FC6
:101950009C2EFF1F3333D33F00004940BD43FF1F80
:10196000DFF82C0A0068401EDFF8241A086070E7D0
:10197000DFF8E0090068012824D1DFF8180A0068C0
:10198000DFF8A015B1F90010DFF89C25B2F90020AE
:101990005118022291FBF2F10818DFF8F8190860DB
:1019A000DFF8F0090068B0F5966F0BDB0220DFF876
:1019B000A41908600020DFF8DC1908600020DFF8B7
:1019C000D8190870DFF88C090068032825D1DFF8E2
:1019D000C4090068DFF84C15B1F90010DFF848259C
:1019E000B2F900205118022291FBF2F10818DFF839
:1019F000A4190860DFF89C09006840F24C41884255
:101A00000BDB0020DFF84C1908600020DFF8841998
:101A100008600020DFF880190870DFF838090068D6
:101A2000012804D0DFF82C090068032851D1DFF821
:101A30000C054068002804D4DFF800054068C82879
:101A400047DBDFF818090078272814D0DFF80809E9
:101A5000007827280FD0DFF81409B0F94E00DFF81E
:101A60001019B1F94E100818022190FBF1F0DFF8BF
:101A70002C19086047E0DFF8E408007827280DD12A
:101A8000DFF8D4080078272808D0DFF8E408B0F998
:101A90004E006430DFF80419086034E0DFF8B8085D
:101AA000007827280DD1DFF8B4080078272808D05F
:101AB000DFF8B808B0F94E006438DFF8E0180860C5
:101AC00021E0DFF8B408B0F90000DFF8D0180860B2
:101AD00019E0DFF880080068012804D0DFF87408F6
:101AE000006803280FD1DFF85404406800280AD4A6
:101AF000DFF848044068C82805DADFF84004406889
:101B0000DFF898180860DFF84C080068012805D055
:101B1000DFF840080068032841F092802720DFF8B2
:101B2000301E08700020DFF854180860DFF838080D
:101B30000078C01EDFF848180860DFF84408006825
:101B4000002800F19980DFF854080068DFF8401899
:101B50000860DFF83C080068082872DBDFF8C80777
:101B6000DFF81C180968C82202FB0100DFF8201802
:101B70000968085CDFF8B017DFF804281268C8238A
:101B800003FB0211DFF808281268511811F8071C2E
:101B9000401A33284DDBDFF89007DFF8E4170968B7
:101BA000C82202FB0100DFF8E8170968085C9728E3
:101BB0003FDBDFF87407DFF8C8170968C82202FBAB
:101BC0000100DFF8CC170968081810F8070C9628F0
:101BD0002FDADFF85407DFF8A8170968C82202FBDC
:101BE0000100DFF8AC170968085CDFF83C17DFF884
:101BF00090271268C82303FB0211DFF894271268AC
:101C0000511811F8081C401A332812DBDFF86C0752
:101C10000068401CDFF864170860DFF8740700688C
:101C2000C01FDFF84C17DFF85827126821F81200A0
:101C300007E0DFF85C070068401EDFF85417086013
:101C400087E7DFF83807006803280DD10020DFF8A8
:101C50002C170860DFF828070068DFF8F41C08700C
:101C60000AE000BFBC43FF1FDFF814070068401EF6
:101C7000DFF80C17086060E72720DFF8D81C087031
:101C80000020DFF8F8160860DFF8DC060078C01ED8
:101C9000DFF8EC160860DFF8E8060068002800F1BD
:101CA0009380DFF8F8060068DFF8E4160860DFF8D4
:101CB000E0060068C0286FDADFF86C06DFF8C016AF
:101CC0000968C82202FB0100DFF8C4160968085C35
:101CD000DFF85416DFF8A8261268C82303FB0211A8
:101CE000DFF8AC2612685118C979401A33284BDB4B
:101CF000DFF83406DFF888160968C82202FB010005
:101D0000DFF88C160968085C97283DDBDFF81806B9
:101D1000DFF86C160968C82202FB0100DFF87016B4
:101D200009680818C07996282EDADFF8FC05DFF874
:101D300050160968C82202FB0100DFF85416096832
:101D4000085CDFF8E415DFF838261268C82303FBC7
:101D50000211DFF83C2612685118097A401A33281C
:101D600012DBDFF818060068401CDFF81016086068
:101D7000DFF81C060068C01DDFF8F015DFF800264C
:101D8000126821F8120007E0DFF804060068401C22
:101D9000DFF8FC1508608AE7DFF8E0050068032833
:101DA0000AD10020DFF8D4150860DFF8D4050068F8
:101DB000DFF8A01B087007E0DFF8C4050068401ECC
:101DC000DFF8BC15086066E7DFF8880B0078DFF8FD
:101DD000801B0978401A0AF039F8082821DADFF860
:101DE000740B0078DFF8681B097888420CD2DFF8A2
:101DF000640B0078DFF86C1B0860DFF8580B007884
:101E0000DFF8641B086029E0DFF8440B0078DFF896
:101E1000581B0860DFF8380B0078DFF8481B0860B3
:101E20001CE0DFF8300B0078DFF8241B09788842CB
:101E30000AD2DFF81C0B0078DFF8281B08600020AE
:101E4000DFF8241B086009E0DFF8080B0078DFF8F2
:101E5000181B08600020DFF80C1B0860DFF8080B77
:101E60000068DFF8001B09680843002800F0E886D6
:101E7000DFF8F00A0068002800F04481DFF81C0554
:101E80000068DFF80C150860DFF804050068072813
:101E90005EDBDFF89404DFF8CC1A0968C82202FB85
:101EA0000100DFF8EC140968085CDFF87C14DFF847
:101EB000B42A1268C82303FB0211DFF8D424126885
:101EC000511811F8071C401A332839DBDFF8580481
:101ED000DFF8901A0968C82202FB0100DFF8B0148D
:101EE0000968085C97282BDBDFF83C04DFF8741ADC
:101EF0000968C82202FB0100DFF894140968081879
:101F000010F8070C96281BDADFF884040068C01F5D
:101F1000DFF85C14DFF84C2A126821F8120017E091
:101F2000FC33FF1FAE43FF1FAC43FF1F1843FF1FCF
:101F3000483EFF1FAC0CFF1FE00BFF1F002FFF1FD1
:101F4000DFF84C040068401EDFF8441408609BE78B
:101F50002720DFF8181A0870DFF8080A0068401E0A
:101F6000DFF81C140860DFF818040068002800F18E
:101F7000C9802820DFF818140860DFF8140400680E
:101F8000002800F1A980DFF8E803DFF8F4130968FE
:101F900010EB4100B0F90200DFF8F413096801FA10
:101FA00080F014380128C0F29180DFF8C403DFF814
:101FB000D013096810EB4100B0F90200DFF8D0132C
:101FC000096801FA80F00D38C82880F27F80DFF8B8
:101FD0005803DFF8AC130968C82202FB0100DFF8E0
:101FE0009013DFF89C23126811EB4201B1F9021043
:101FF000DFF89C23126802FA81F1081810F80D0C22
:10200000C949DFF87C231268C82303FB0211DFF8FB
:102010006023DFF86C331B6812EB4302B2F9022035
:10202000DFF86C331B6803FA82F2511811F8141CA4
:10203000401A332846DBBC48DFF844130968C8223D
:1020400002FB0100CA49DFF83823126811EB420194
:10205000B1F90210DFF83823126802FA81F108188A
:1020600010F80D0C97282DDBAF48C5490968C82228
:1020700002FB0100BE49C24A126811EB4201B1F9EC
:102080000210C34A126802FA81F1081810F8140C01
:10209000962817DAB648BA49096810EB410040881B
:1020A000BB49096808181438B149B54A126821F8C3
:1020B00012000120DFF82C1E08700020DFF8AC1899
:1020C000087009E00020DFF81C1E0870B0480068A6
:1020D000401EAF49086050E7DFF8080E007800287E
:1020E00006D1A7480068401CDFF88018087009E096
:1020F000A3480068401EA249086034E74004FF1F5F
:102100000034FF1FDFF860080068002800F05081ED
:10211000A24800689E4908609D480068C12855DAB9
:102120008148DFF844180968C82202FB0100984979
:102130000968085C7C49DFF830281268C82303FB73
:102140000211934A12685118C979401A332837DBB3
:102150007548DFF814180968C82202FB01008C4991
:102160000968085C97282BDB6F48DFF8FC170968C3
:10217000C82202FB0100864909680818C079962820
:102180001EDA83480068C01D7849DFF8DC27126832
:1021900021F812001AE000BF5404FF1F8C04FF1F37
:1021A0001004FF1FDF43FF1F102FFF1F1404FF1F2A
:1021B0000000E03F9C43FF1FF433FF1FE743FF1F76
:1021C00073480068401C72490860A5E72720DFF8C3
:1021D000181D0870DFF890070068401E6849086005
:1021E00067480068002800F1E38000206849086023
:1021F00067480068292880F299805C48604909682E
:1022000010EB4100B0F902006149096801FA80F061
:102210001B380128C0F2818054485949096810EBE5
:102220004100B0F902005A49096801FA80F01438F7
:10223000C82872DA3C4852490968C82202FB0100EA
:102240004A494F4A126811EB4201B1F90210504A53
:10225000126802FA81F1081810F81B0C3249484A3A
:102260001268C82303FB0211404A454B1B6812EB5E
:102270004302B2F90220464B1B6803FA82F251185E
:1022800011F8141C401A332843DB27483C490968DD
:10229000C82202FB01003549394A126811EB42019C
:1022A000B1F902103A4A126802FA81F1081810F8DE
:1022B0001B0C97282DDB1C4831490968C82202FBFA
:1022C00001002A492E4A126811EB4201B1F90210AD
:1022D0002F4A126802FA81F1081810F8140C962897
:1022E00017DA22482649096810EB4100408828493E
:1022F0000968081814381D49214A126821F812008B
:102300000120DFF8E81B08700020DFF8DC1B0870F4
:102310000CE00020DFF8D41B08701D480068401C4A
:102320001B49086064E700BF080FFF1FDFF8BC0B04
:102330000078002834D112480068401CDFF8A81B40
:10234000087035E0E943FF1FEA43FF1FF833FF1F22
:10235000BF43FF1F7C32FF1FB943FF1FB843FF1F5E
:10236000CA43FF1F7C04FF1FC043FF1F6842FF1FBB
:10237000A42EFF1FC430FF1F3A04FF1FA02EFF1F13
:10238000982EFF1F8432FF1FC143FF1F8832FF1F9B
:102390009C2EFF1F8032FF1FCC43FF1F9832FF1F70
:1023A000DFF8340E0068401EDFF82C1E086017E7C7
:1023B000DFF8B8050078002874D0DFF8A8050068B9
:1023C00000286FD0DFF8140EDFF8A015097810EBA5
:1023D0004100B0F90200DFF8041EDFF89025127802
:1023E00031F9121001FA80F0DFF8F01DDFF87C25DA
:1023F000127811EB4201B1F90610401ADFF8DC1D2A
:10240000DFF86825127811EB4201B1F90410401A87
:1024100000EE100AB8EEC00AF1EE000A80EE200AC3
:10242000DFF8900E80ED000ADFF840050078C01C50
:10243000DFF8A41D0860DFF8A00D0068002831D483
:10244000DFF8980DDFF82415097810EB4100B0F99A
:10245000060000EE100AB8EEC00ADFF8100500789A
:10246000DFF8741D0968401AC01C00EE900AF8EEEF
:10247000E00ADFF8400E90ED001A00EE810ABDEE92
:10248000C00A10EE100ADFF8541DDFF84C2D126858
:1024900021F81200DFF8400D0068401EDFF8381DFB
:1024A0000860C8E7DFF8400A0078002874D0DFF839
:1024B000B804006800286FD0DFF8FC0DDFF8281A98
:1024C000097810EB4100B0F90200DFF8EC1DDFF8ED
:1024D000182A127831F9121001FA80F0DFF8D81DAD
:1024E000DFF8042A127811EB4201B1F90610401A04
:1024F000DFF8C41DDFF8F029127811EB4201B1F9C1
:102500000410401A00EE100AB8EEC00AF1EE000AFC
:1025100080EE200ADFF89C0D80ED000ADFF8C80984
:102520000078C01CDFF8B01C0860DFF8AC0C006855
:10253000002831D4DFF8800DDFF8AC19097810EBF2
:102540004100B0F9060000EE100AB8EEC00ADFF84C
:1025500098090078DFF8801C0968401AC01C00EE5A
:10256000900AF8EEE00ADFF84C0D90ED001A00EE4C
:10257000810ABDEEC00A10EE100ADFF83C1DDFF83C
:10258000582C126821F81200DFF84C0C0068401E2D
:10259000DFF8441C0860C8E7DFF84C090078DFF872
:1025A000C8130968891E884280F269810320DFF818
:1025B0005C1E08600020DFF8581E08600020DFF86D
:1025C000541E08600020DFF8501E08600020DFF86D
:1025D0004C1E0860E4480068DFF8FC1B0860DFF868
:1025E000F80B0068E0490968891E88423FDBDFF884
:1025F000200E0068DFF8E01B09680818DFF8101EDD
:102600000860DFF8100E0068DFF8AC1CDFF8C82B9C
:10261000126831F912104018DFF8F81D0860DFF871
:10262000F80D0068DFF8B01B0968DFF8AC2B126802
:1026300002FB0100DFF8E01D0860DFF8E00D006834
:10264000DFF8941B0968DFF8702CDFF88C3B1B68FF
:1026500032F9132002FB0100DFF8C01D0860DFF82B
:10266000780B0068401EDFF8701B0860B7E7DFF8E2
:10267000A00D90ED000AB8EEC00A10EE100A09F0A5
:102680001DFB0022DFF8983D09F05EF904000D0003
:10269000DFF8780D006809F03FF902000B00200018
:1026A000290009F0D7FB09F0F9FCDFF8781D086074
:1026B000DFF8600D90ED000AB8EEC00A10EE100AC7
:1026C00009F0FCFA0022DFF8583D09F03DF904005A
:1026D0000D00DFF8380D006809F01EF902000B004C
:1026E0002000290009F0B6FB09F0D8FCDFF8381DFE
:1026F0000860DFF8240D90ED000AB8EEC00A10EE75
:10270000100A09F0DBFA0022DFF8143D09F01CF989
:1027100004000D00DFF8F40C006809F0FDF8020079
:102720000B002000290009F095FB09F0B7FCDFF849
:10273000941E0860DFF8E40C90ED000AB8EEC00AC1
:1027400010EE100A09F0BAFA0022DFF8D43C09F0C2
:10275000FBF804000D00DFF8B40C006809F0DCF8A9
:1027600002000B002000290009F074FB09F096FC20
:10277000DFF8541E0860DFF8AC0C90ED000ADFF8BB
:10278000A80CD0ED000ADFF8400E90ED001A00EE24
:10279000601A9FED710A21EE000ADFF8880CD0ED77
:1027A000000ADFF8800C90ED001ADFF8180ED0ED6B
:1027B000001A40EEC11A80EE210ADFF8600E80EDAB
:1027C000000ADFF8580E90ED000ADFED630A80EE94
:1027D000200ADFF84C0E80ED000ADFF8440E90ED81
:1027E000000ADFED5E0AB4EE600AF1EE10FA0AD4D8
:1027F000DFF82C0E90ED000ADFED590AB4EE600A06
:10280000F1EE10FA04DBDFF8180E5FF08041016092
:1028100055480068DFF8C0190860DFF8BC09006897
:1028200028282CDADFF8900A4F49096830F911009E
:1028300000EE100AB8EEC00A4B480068DFF898199D
:102840000968401A00EE900AF8EEE00ADFF8D00DB1
:1028500090ED001A00EEC10ABDEEC00A10EE100A9B
:10286000DFF8541ADFF87029126821F81200DFF837
:1028700068090068401CDFF860190860CDE73B4834
:10288000007838490968891E884280F27C810320DB
:10289000DFF8781B08600020DFF8741B0860002058
:1028A000DFF8701B08600020DFF86C1B0860002058
:1028B000DFF8681B08602B480068DFF81C19086007
:1028C000DFF81409006827490968891E88424FDB30
:1028D000DFF83C0B0068DFF8001909680818DFF81A
:1028E000301B0860DFF82C0B0068DFF8F018DFF809
:1028F000E828126831F912104018DFF8181B086038
:10290000DFF8140B0068DFF8D0180968DFF8C82872
:10291000126802FB0100DFF8001B0860DFF8FC0A08
:102920000068DFF8B4180968DFF8B028DFF8A838C5
:102930001B6832F9132002FB0100DFF8E01A08607F
:10294000DFF894080068401EDFF88C180860B7E7CD
:10295000C743FF1FC643FF1F0000C8420100003FDE
:10296000676626409032FF1F9432FF1FC443FF1F4B
:10297000DFF89C0A90ED000AB8EEC00A10EE100ACB
:1029800009F09CF90022DFF8983A08F0DDFF040016
:102990000D00DFF8780A006808F0BEFF02000B00A7
:1029A0002000290009F056FA09F078FBDFF8741AC4
:1029B0000860DFF8600A90ED000AB8EEC00A10EE79
:1029C000100A09F07BF90022DFF8543A08F0BCFF46
:1029D00004000D00DFF8340A006808F09DFF0200D3
:1029E0000B002000290009F035FA09F057FBDFF849
:1029F000381A0860DFF8200A90ED000AB8EEC00A25
:102A000010EE100A09F05AF90022DFF8143A08F023
:102A10009BFF04000D00DFF8F409006808F07CFF5C
:102A200002000B002000290009F014FA09F036FB1F
:102A3000DFF8901B0860DFF8E40990ED000AB8EEBB
:102A4000C00A10EE100A09F039F90022DFF8D03977
:102A500008F07AFF04000D00DFF8B009006808F004
:102A60005BFF02000B002000290009F0F3F909F0D8
:102A700015FBDFF8541B0860DFF8A80990ED000A89
:102A8000DFF8A409D0ED000ADFF83C0B90ED001A46
:102A900000EE601A9FEDDD0A21EE000ADFF88409DE
:102AA000D0ED000ADFF87C0990ED001ADFF8140B76
:102AB000D0ED001A40EEC11A80EE210ADFF8380E80
:102AC00080ED000ADFF8300E90ED000ADFEDCF0A4E
:102AD00080EE200ADFF8240E80ED000ADFF81C0EDD
:102AE00090ED000ADFEDCA0AB4EE600AF1EE10FACA
:102AF0000AD4DFF8080E90ED000ADFEDC60AB4EE46
:102B0000600AF1EE10FA04DBDFF8F00DDFF8F01DDB
:102B10000160DFF8F00D0068DFF8BC160860DFF830
:102B2000B806006828282EDADFF8B006DFF8D41DD2
:102B3000096830F9110000EE100AB8EEC00ADFF89B
:102B4000C40D0068DFF890160968401A00EE900A7C
:102B5000F8EEE00ADFF8A40D90ED001A00EEC10ACD
:102B6000BDEEC00A10EE100ADFF87016DFF8682616
:102B7000126821F81200DFF860060068401CDFF8D8
:102B800058160860CBE7D8480078DFF8D81D0968E8
:102B9000891E884225DB0020DFF83C160860DFF83C
:102BA0003806006828281CDADFF83006DFF8281617
:102BB000096830F81100DFF8C01DDFF81C26126824
:102BC000515C4018DFF8F016DFF80C26126821F887
:102BD0001200DFF804060068401CDFF8FC150860EE
:102BE000DDE7DFF8980D0078DFF8181D0968891E09
:102BF000884225DB0020DFF8E0150860DFF8D80503
:102C0000006828281CDADFF8B006DFF8CC15096860
:102C100030F81100DFF8601DDFF8BC251268515C48
:102C2000401ADFF8B815DFF8B025126821F8120055
:102C3000DFF8A4050068401CDFF89C150860DDE79C
:102C4000DFF83C0D007801280DD1DFF8380D006861
:102C5000012804D0DFF82C0D0068032803D10320DD
:102C6000DFF8241D08700020DFF8201D0860002018
:102C7000DFF81C1D08600020DFF8181D0860002028
:102C8000DFF8141D08600020DFF8101D0860002028
:102C9000DFF80C1D08600020DFF8081D0860002028
:102CA000DFF8041D08600020DFF8001D0860002028
:102CB000DFF8FC1C08600020DFF8F81C086000202A
:102CC000DFF8F41C08600020DFF8F01C0870DFF863
:102CD000F00C00210160DFF8EC0C0078002809D02E
:102CE000DFF89C0C0078002804D1C820DFF8D81C3D
:102CF000086004E04FF46170DFF8CC1C0860DFF876
:102D0000CC0C0078012805D0DFF8C40C007801282D
:102D100041F0D085DFF8BC0C0078DFF8BC1C0978E6
:102D2000401A09F093F806280ADADFF8A80C0078B0
:102D30000B2805DADFF8A00C00780B28C1F2BA8561
:102D4000DFF8980C0078012841F0B4852520DFF8E1
:102D500088140860DFF880040068DFF8781C0978C0
:102D6000891C884260DBDFF87404DFF86C140968A2
:102D700030F91100DFF86414DFF85C24126811EBFD
:102D80004201B1F90210884246DBDFF85004DFF857
:102D90004814096830F91100DFF84014DFF83824CE
:102DA000126811EB420131F9021C884234DBDFF872
:102DB0002C04DFF82414096810EB4100B0F902007C
:102DC000DFF81814DFF81024126811EB4201B1F992
:102DD0000410884220DBDFF80404DFF8FC130968E4
:102DE00010EB410030F9020CDFF8F013DFF8E823B4
:102DF000126811EB420131F9041C88420CDBDFF848
:102E0000D8030068DFF8841B08600DE00000C842AA
:102E1000CCCC2CC0FEFFFFBEDFF8BC030068401E18
:102E2000DFF8B413086095E72520DFF8AC130860DD
:102E3000DFF8A4030068DFF8A01B0978891C88422A
:102E400056DBDFF87404E449096810EB4100B0F97F
:102E50000200DFF86414E04A126831F91210884267
:102E600039DBDFF85404DC49096810EB410030F924
:102E7000020CDFF84414D84A126831F91210884263
:102E800029DBDFF83404D449096810EB4100B0F9BC
:102E90000400DFF82414D04A126811EB4201B1F9A2
:102EA0000210884217DBDFF81004CB49096810EBE9
:102EB000410030F9040CDFF80014C74A126811EB26
:102EC000420131F9021C884205DBC3480068DFF883
:102ED000C01A08600CE0C0480068401EBE49086087
:102EE000A6E700BFBD43FF1FC543FF1FBC43FF1F35
:102EF000DFF8E00A00780B2805DADFF8DC0A007852
:102F00000B28C1F24382DFF8C80A0078012805D0F7
:102F1000DFF8B80A0078012841F03882DFF8BC0AEF
:102F20000078012841F03282DFF8E80D0078DFF800
:102F3000E81D09780843DFF8E41D09780843C0B2AA
:102F4000002841F02382DFF8380A007801280BD0EE
:102F5000DFF82C0A0078002841F01882DFF8C00D55
:102F60000078002801F01282DFF8200A00680028AB
:102F700000F03A85DFF8140A0068DFF8581A09787B
:102F8000401A0228C0F23085DFF8F40900780128E1
:102F900040F04C82DFF8F40900680838002800F19E
:102FA0005382DFF8300A0078DFF8E0190968083941
:102FB000884280F21581DFF8D40900680838DFF80C
:102FC000181A0978884280F2D2808448DFF8081AFB
:102FD000097830F91100B849DFF8FC29127831F985
:102FE00012100818022190FBF1F0C4285CDADFF817
:102FF000F01DDFF898291268C82303FB021141185D
:10300000B1F5C8610978DFF8D82DDFF880391B6881
:10301000C82404FB03228218A2F23D621278891AA6
:1030200033293BDBDFF8B81DDFF860291268C823BD
:1030300003FB02114118B1F5C8610978DFF8A02D32
:10304000DFF848391B68C82404FB03228218A2F267
:103050003C621278891A332920DBDFF8841DDFF8FF
:103060002C291268C82303FB02114118B1F5C8616D
:103070000978972912DBDFF8681DDFF8102912683C
:10308000C82303FB02114118A1F23D61097896297A
:1030900004DAC01CDFF8C81D086005E0C721DFF8AE
:1030A000C02D1160401CA0E74C48B0F94E00824989
:1030B000B1F94E100818022190FBF1F0C4286CDA27
:1030C000DFF81C1DDFF8C4281268C82303FB0211B7
:1030D000411891F89011DFF8082DDFF8B0381B681F
:1030E000C82404FB0322821892F89321891A3329F9
:1030F00037DBDFF8EC1CDFF894281268C82303FBE9
:103100000211411891F89011DFF8D42CDFF87C38C7
:103110001B68C82404FB0322821892F89421891AA0
:1031200033291EDBDFF8B81CDFF860281268C823DB
:1031300003FB0211411891F89011972911DBDFF878
:10314000A01CDFF848281268C82303FB02114118AD
:1031500091F89311962904DAC01CDFF8081D086065
:103160001BE0C721DFF8FC2C1160401CA6E7524889
:10317000DFF81818096810EB410030F9100CDFF87F
:10318000E01C08604C48DFF80418096810EB4100A7
:10319000B0F90400DFF8CC1C0860DFF8C40C00684C
:1031A0000E49DFF8E827126811EB420131F9101CD3
:1031B000401ADFF8B01C0968401A0849DFF8CC272C
:1031C000126811EB4201B1F9041000FA81F0DFF846
:1031D000981C08600AE100BF982EFF1FA42EFF1F55
:1031E000DFF8F0070078DFF8F0170978884280F000
:1031F000CA80DFF8780CDFF8E017097830F91100A1
:103200002D49DFF8D427127831F91210081802215D
:1032100090FBF1F0C42851DADFF8C41BDFF8B427C3
:103220001278C82303FB0211415CDFF8B42BDFF8EE
:10323000A4371B78C82404FB03228218D278891A89
:10324000332931DBDFF8981BDFF888271278C82391
:1032500003FB0211415CDFF8882BDFF878371B781D
:10326000C82404FB032282181279891A33291BDB34
:10327000DFF86C1BDFF85C271278C82303FB021110
:10328000415C972910DBDFF8581BDFF848271278DC
:10329000C82303FB02114118C978962904DAC01C1F
:1032A000DFF8BC1B086009E0C721DFF8B42B116010
:1032B000401CAFE7FC2EFF1F6842FF1FDFF8AC0B7E
:1032C000B0F94E00DFF8781DB1F94E100818022150
:1032D00090FBF1F0C4286CDADFF8041BDFF8AC26B1
:1032E0001268C82303FB0211411891F89011DFF80E
:1032F000F02ADFF898361B68C82404FB03228218E2
:1033000092F89321891A332937DBDFF8D41ADFF8D2
:103310007C261268C82303FB0211411891F8901112
:10332000DFF8BC2ADFF864361B68C82404FB0322DC
:10333000821892F89421891A33291EDBDFF8A01A2B
:10334000DFF848261268C82303FB0211411891F8E0
:103350009011972911DBDFF8881ADFF83026126800
:10336000C82303FB0211411891F89311962904DA3E
:10337000C01CDFF8F01A08601BE0C721DFF8E42A60
:103380001160401CA6E7DFF8B80CDFF84816097892
:1033900030F91100DFF8C81A0860DFF8A40CDFF874
:1033A000EC15096810EB4100B0F90400DFF8B41A1D
:1033B0000860DFF8AC0A0068DFF8B01ADFF81426FE
:1033C000127831F91210401ADFF8981A0968401A79
:1033D000DFF8981ADFF8B425126811EB4201B1F951
:1033E000041000FA81F0DFF8801A0860DFF8780A2C
:1033F0000068142804DB0120DFF8D01D087023E0EA
:103400000020DFF8C81D08701EE000BF2834FF1F31
:103410000434FF1F0834FF1F0C34FF1F1034FF1F3C
:103420000000F03F1434FF1F1834FF1FDFF8500571
:103430000078002808D1DFF8E8080078002803D0D9
:103440000120DFF8881D0870DFF8800D0078002863
:1034500000F0CA82DFF8140ADFF83015096830F985
:1034600011003D30C72807DB8A20DFF8001ADFF89B
:103470001C25126821F81200DFF86409DFF80C152A
:103480000968C82202FB0100DFF8E019DFF8FC241C
:10349000126831F912100818B0F57A700078972880
:1034A000C0F28B81DFF824050078012840F08E807F
:1034B00000240020DFF8181D0860DFF8D004006841
:1034C000D0F1270006281ADADFF8C0040068D0F12E
:1034D0002700012813DB2722DFF8B0040068D0F1B1
:1034E000280109B2DFF88409FCF7AAFF00EE100AF0
:1034F000B8EEC00ADFF8DC0C80ED000A18E0DFF857
:103500008C040068D0F12700062811DBDFF87C046A
:103510000068021D12B20521DFF85009FCF790FF88
:1035200000EE100AB8EEC00ADFF8A80C80ED000A21
:103530002720002823D4DFF83419B1F94E1000EE0B
:10354000101AB8EEC00AD0F1270100EE901AF8EE7A
:10355000E00ADFF8801C91ED001A60EE810AB2EEFD
:10356000041AC0EE810A30EE600ABDEEC00A10EE09
:10357000101ADFF8A42D22F81010401ED9E71E20E3
:103580000B2818DBDFF8941D411811F80B1CDFF82D
:10359000882D32F91020DFF8E033C35C9A18DFF889
:1035A000783D33F91030D2185143022291FBF2F1E9
:1035B0000C19401EE4E7D22094FBF0F0DFF8101C59
:1035C000086085E01C34FF1F2034FF1F002400200A
:1035D000DFF8FC1B0860DFF8B4030068D0F12700B7
:1035E00006281FDADFF8A4030068D0F127000128BD
:1035F00018DB2722DFF894030068D0F1280109B214
:10360000DFF86808FCF71CFF00EE100AB8EEC00AED
:10361000DFF8C00B80ED000A1CE000BF8C31FF1FFB
:103620009831FF1FDFF864030068D0F127000628F7
:1036300010DBD6480068021D12B20521DFF82C0805
:10364000FCF7FEFE00EE100AB8EEC00ADFF8840BAD
:1036500080ED000A2720002823D4DFF81018B1F9E4
:103660004E1000EE101AB8EEC00AD0F1270100EE9D
:10367000901AF8EEE00ADFF85C1B91ED001A60EE9C
:10368000810AB2EE041AC0EE810A30EE600ABDEE85
:10369000C00A10EE101ADFF8802C22F81010401E1D
:1036A000D9E71E200B280CDBDFF8701C411811F83D
:1036B0000B1CDFF8642C32F9102002FB0144401E81
:1036C000F0E7D22094FBF0F04A30DFF8041B0860EA
:1036D000DFF8FC0A006803286FDBDFF8F40A0068F3
:1036E000C5286ADADFF8E80A0068C01EDFF8E01AC9
:1036F0000968C91C814260DBA4490968491FDFF8D9
:10370000802C1160DFF8781C09680D2941DBDFF897
:10371000D016DFF86C2C1268C82303FB0211415C41
:10372000DFF8BC26DFF8583C1B68C82404FB0322E2
:103730008218B2F516721278891A332921DBDFF864
:10374000A016DFF83C2C1268C82303FB0211415C71
:10375000972916DBDFF88816DFF8242C1268C823B7
:1037600003FB02114118B1F516710978962908DAA0
:103770008F490860DFF8081C0968C91E854A116076
:1037800007E0DFF8FC1B0968491EDFF8F42B116025
:10379000B8E78049096800290DD07E4909680F29DA
:1037A00009DB7C48006879490968401A08F04EFB3B
:1037B0007D49086001E0401C98E77B48006808F0FC
:1037C00045FB0928C0F20C817748006808F03EFBF1
:1037D000182880F2058176480068401DC72802DB62
:1037E000C2207349086072480068401FDFF8901BD0
:1037F00008606F480068401DDFF8841B0968884234
:10380000C0F2EE80DFF8D80562490968C82202FBE1
:103810000100DFF86C1B0968085C962804DA65482B
:103820000068401C63490860624800680A28C0F2CA
:103830009B800120DFF8F01C08700020DFF8EC1CF2
:103840000860DFF8EC0CB0F94E00032826DBDFF847
:103850009015411891F8D017DFF88425821892F856
:10386000CD27891A11F1320F12DADFF874154118D9
:1038700091F8D01796290BDADFF86415411891F802
:10388000CD17972904DBC01EDFF8781D086005E01E
:103890000021DFF8702D1160401ED6E7DFF8900C94
:1038A000B0F94E00C5282FDADFF83415411891F829
:1038B000D017DFF82C25821892F8D327891A11F136
:1038C000320F12DADFF81815411891F8D01796293F
:1038D0000BDADFF80C15411891F8D317972904DBA0
:1038E000C01CDFF8241D08600EE0C721DFF8182D8A
:1038F0001160401CD6E700BF9031FF1F9431FF1FBD
:10390000666606C09032FF1FDFF8FC0C0068DFF827
:10391000F41C0968401ADFF8F41C0860DFF8EC0CAE
:103920000068562804DA0120DFF8E41C087008E07B
:10393000DFF8D80C0068A62803DA0220DFF8D01CD4
:1039400008700F480078012803D109200E4908703B
:1039500007E00B480078002803D10020DFF8C013EF
:1039600008703DE09432FF1FDFF8140A0068401C25
:10397000DFF80C1A08603CE75404FF1FC443FF1F24
:103980001004FF1F7C32FF1FDF43FF1F542FFF1F58
:10399000582FFF1F5C2FFF1F602FFF1F6C2FFF1F73
:1039A000702FFF1F802FFF1F7C2FFF1F8C2FFF1FEB
:1039B000902FFF1F642FFF1F682FFF1FC243FF1FA1
:1039C000502FFF1FEB43FF1FD02FFF1FBB43FF1FD5
:1039D000BA43FF1FB943FF1FB843FF1F7C04FF1FFB
:1039E0000020DFF8E8170870DFF8BC0D0068002839
:1039F00000F0CC84DFF8B00D0068DFF8B01D097866
:103A0000401A0228C0F2C284DFF8A40D0078012811
:103A100040F02E82DFF8900D00680838002800F191
:103A20003482DFF8880D0078DFF87C1D09680839DA
:103A3000884280F20881DFF8700D00680838DFF8EE
:103A4000741D0978884280F2C980DFF82004DFF80D
:103A5000641D097830F91100DFF8E415DFF8542D02
:103A6000127831F912100818022190FBF1F00428A5
:103A700056DBDB49DFF8302D1268C82303FB021147
:103A80004118B1F5C8610978D54ADFF81C3D1B68BB
:103A9000C82404FB03228218A2F243621278891A16
:103AA000332937DBCE49DFF8002D1268C82303FB2A
:103AB00002114118B1F5C8610978C94ADFF8E83C3C
:103AC0001B68C82404FB03228218A2F24462127805
:103AD000891A33291EDBC249DFF8CC2C1268C823AF
:103AE00003FB02114118B1F5C8610978972911DB70
:103AF000BB49DFF8B42C1268C82303FB021141183C
:103B0000A1F243610978962904DAC01EDFF8981DF6
:103B1000086005E00021DFF8902D1160401EA6E747
:103B2000D248B0F94E00DFF81815B1F94E10081858
:103B3000022190FBF1F0042866DBA949DFF8682C2C
:103B40001268C82303FB0211411891F89011A44A8E
:103B5000DFF8543C1B68C82404FB0322821892F847
:103B60008D21891A332933DB9D49DFF83C2C1268FB
:103B7000C82303FB0211411891F89011984ADFF80D
:103B8000283C1B68C82404FB0322821892F88C216D
:103B9000891A33291CDB9249DFF80C2C1268C823E0
:103BA00003FB0211411891F89011972910DB8C4901
:103BB000DFF8F42B1268C82303FB0211411891F8B7
:103BC0008D11962904DAC01EDFF84C1D08601BE039
:103BD0000021DFF8442D1160401EACE7A348DFF858
:103BE000C81B096810EB410030F9100CDFF8B81C55
:103BF00008609E48DFF8B01B096810EB4100B0F97F
:103C00000400DFF8141D0860DFF83404DFF8981BA7
:103C1000096810EB410030F9100CDFF88C1C0968C2
:103C2000401ADFF81C14DFF8802B126811EB4201F8
:103C3000B1F90410401ADFF8E01C09680818DFF831
:103C4000DC1C0860FCE0DFF8640B0078DFF8641B24
:103C50000978884280F0C6808448DFF8581B0978CC
:103C600030F91100DFF8D813DFF8482B127831F95A
:103C700012100818022190FBF1F0042852DB584979
:103C8000DFF8282B1278C82303FB0211415C544A49
:103C9000DFF8183B1B78C82404FB0322821812F8B3
:103CA000032C891A33292FDB4D49DFF8002B1278BA
:103CB000C82303FB0211415C494ADFF8F03A1B7844
:103CC000C82404FB0322821812F8042C891A332911
:103CD0001ADB4349DFF8D42A1278C82303FB021108
:103CE000415C972910DB3E49DFF8C02A1278C823CF
:103CF00003FB0211411811F8031C962904DAC01EB7
:103D0000DFF8A41B08600DE00021DFF89C2B116098
:103D1000401EB2E7CC43FF1FEC43FF1FEA43FF1FE7
:103D2000CD43FF1F5148B0F94E00C549B1F94E10BF
:103D30000818022190FBF1F0042867DB2849DFF81E
:103D4000682A1268C82303FB0211411891F89011E8
:103D5000234ADFF8543A1B68C82404FB0322821864
:103D600092F88D21891A332933DB1D49DFF8382A6F
:103D70001268C82303FB0211411891F89011184AE8
:103D8000DFF8243A1B68C82404FB0322821892F847
:103D90008C21891A33291CDB1149DFF80C2A12689F
:103DA000C82303FB0211411891F89011972910DBE9
:103DB0000B49DFF8F4291268C82303FB02114118EC
:103DC00091F88D11962904DAC01EDFF84C1B0860AB
:103DD0001CE00021DFF8402B1160401EACE700BF63
:103DE000080FFF1F2148DFF8C419097830F91100C6
:103DF000DFF8B41A08601D48DFF8AC19096810EB49
:103E00004100B0F90400DFF8101B08608C48DFF8AF
:103E10009C19097830F91100DFF88C1A0968401AEA
:103E20008749DFF88429126811EB4201B1F90410C7
:103E3000401ADFF8E41A09680818DFF8E01A086089
:103E4000DFF8D80A0068142804DB0120DFF87C13AF
:103E500008701AE00020DFF87413087015E000BF46
:103E6000D030FF1FC830FF1F742FFF1FA42EFF1F6D
:103E7000DFF83C090078002807D1DFF8B80D00789A
:103E8000002802D00120D1490870D04800780028CD
:103E900000F07C826A48DFF81019096830F91100D7
:103EA0003D38012806DA3D206549DFF8FC28126814
:103EB00021F81200DFF8BC0DDFF8EC180968C82201
:103EC00002FB01005E49DFF8E028126831F91210A8
:103ED0000818B0F57A7000789728C0F27F81DFF873
:103EE000980D0078012840F0858000240020B84912
:103EF0000860DFF8B4080068D0F12700062819DA56
:103F0000DFF8A4080068D0F12700012812DB27227F
:103F1000DFF894080068D0F1280109B24848FCF79E
:103F20008FFA00EE100AB8EEC00ADFF8540D80EDEB
:103F3000000A17E0DFF870080068D0F127000628B3
:103F400010DBDFF864080068021D12B205213C484E
:103F5000FCF776FA00EE100AB8EEC00ADFF8200D82
:103F600080ED000A2720002822D43549B1F94E10EF
:103F700000EE101AB8EEC00AD0F1270100EE901A38
:103F8000F8EEE00ADFF8F81C91ED001A60EE810A05
:103F9000B2EE041AC0EE810A30EE600ABDEEC00A2D
:103FA00010EE101ADFF8E02C22F81010401EDAE7AD
:103FB0001E200B2818DBDFF86413411811F80B1CC6
:103FC000DFF8C42C32F91020DFF8C03CC35CD21AF1
:103FD000DFF8B43C33F91030D2185143022291FB80
:103FE000F2F10C19401EE4E7D22094FBF0F078497E
:103FF00008607CE00024002075490860DFF8A8070D
:104000000068D0F1270006281CDADFF89C0700685A
:10401000D0F12700012815DB2722DFF88C07006884
:10402000D0F1280109B20648FCF70AFA00EE100A9E
:10403000B8EEC00ADFF8480C80ED000A1BE000BFB4
:104040006842FF1FDFF860070068D0F127000628EC
:1040500011DBDFF854070068021D12B20521DFF8FA
:10406000300CFCF7EDF900EE100AB8EEC00ADFF8EC
:10407000100C80ED000A2720002823D4DFF8101C44
:10408000B1F94E1000EE101AB8EEC00AD0F12701B7
:1040900000EE901AF8EEE00ADFF8E41B91ED001A4A
:1040A00060EE810AB2EE041AC0EE810A30EE600AB8
:1040B000BDEEC00A10EE101ADFF8CC2B22F810105B
:1040C000401ED9E71E200B280BDB9449411811F83C
:1040D0000B1CDFF8B42B32F9102002FB0144401E08
:1040E000F1E7D22094FBF0F04A38394908603848AB
:1040F0000068032872DB36480068C5286EDA344849
:104100000068C01C32490968C91E884266DBDFF8B6
:1041100098160968491F9A4A1160994909680D293A
:104120003CDBDFF8501B964A1268C82303FB0211E0
:10413000415CDFF8402B924B1B68C82404FB032230
:104140008218B2F516721278891A332920DBDFF84B
:10415000241B8B4A1268C82303FB0211415C972978
:1041600016DBDFF8101B864A1268C82303FB021116
:104170004118B1F516710978962909DADFF8141B90
:1041800008607F490968C91EDFF80C2B116005E043
:104190007B490968491E7A4A1160BEE7DFF8F81AC0
:1041A0000968002918D0DFF8F01A09680F2913DB15
:1041B000DFF8E40A0068DFF8F0150968401A07F034
:1041C00045FEDFF8D81A086008E000BFCE43FF1FA5
:1041D000C030FF1F1830FF1F401E93E7DFF8BC0AF6
:1041E000006807F033FE0928C0F2CC80DFF8AC0A83
:1041F000006807F02BFE182880F2C480DFF8940ACC
:104200000068401F012803DA0520DFF8881A0860DB
:10421000DFF8800A0068401D594908605848006866
:10422000DFF8701A0968491F8842C0F2AB80DFF8D6
:10423000440ADFF8641A0968C82202FB01005049E9
:104240000968085C962806DADFF8E00D0068401C73
:10425000DFF8D81D0860DFF8D40D00680A28C0F226
:1042600089800120B04908700020B0490860B0483A
:10427000B0F94E00032824DBDFF8F819411891F853
:10428000D017DFF8F029821892F8CD27891A11F19A
:10429000320F11DADFF8DC19411891F8D01796299E
:1042A0000ADADFF8D019411891F8CD17972903DB06
:1042B000C01ED449086004E00021D24A1160401EAB
:1042C000D8E79B48B0F94E00C52829DADFF8A419D1
:1042D000411891F8D017DFF89C29821892F8D3275B
:1042E000891A11F1320F11DADFF88819411891F8A3
:1042F000D01796290ADADFF87C19411891F8D317FC
:10430000972903DBC01CC049086009E0C721BE4AE9
:104310001160401CD8E700BF7030FF1F4004FF1F32
:10432000B9480068B7490968401AB8490860B748F1
:104330000068562803DA0120B549087006E0B34842
:104340000068A62802DA0220B1490870DFF860048C
:104350000078012804D10920DFF8C81D087008E0A2
:10436000DFF84C040078002803D10020DFF8C418DF
:10437000087007E002480068401E014908604DE7E8
:10438000982EFF1F0020DFF8041E08706648007892
:10439000012800F08F82DFF8F80D0068012800F096
:1043A0008982DFF8EC0D0068032800F08382DFF8D3
:1043B000E40D0078012840F07D82DFF8DC0D007804
:1043C000012840F03581DFF8EC030078DFF8DC13DA
:1043D0000978401A0628C0F22B81DFF8CC03006868
:1043E000002800F08E80DFF8A808DFF8BC13096809
:1043F00030F91100DFF89818B1F94E10401A00EEAC
:10440000100AB8EEC00ADFF8A0030068D0F1270058
:1044100000EE900AF8EEE00A80EE200ADFF87C0D4C
:1044200080ED000AE0480068E0490978401A052854
:104430001BDBDFF85C08DC49096810EB410030F950
:104440000A0CDFF84C18D84A126831F91210401AD9
:1044500000EE100AB8EEC00AF1EE040A80EE200A5F
:10446000DFF83C0D80ED000A1FE0DFF82408CF499B
:10447000097830F91100DFF81818CB4A126831F9C1
:104480001210401A00EE100AB8EEC00AC6480068C2
:10449000C6490978401A00EE900AF8EEE00A80EE6C
:1044A000200ADFF8FC0C80ED000ADFF8F00C90ED3C
:1044B000000ADFF8EC0CD0ED000A30EE600ABDEE29
:1044C000C00A10EE100A07F0C1FC0628C0F2B08046
:1044D000DFF8C80C90ED000ADFF8C40CD0ED000A3C
:1044E00020EE200AB5EE400AF1EE10FA40F1A0806D
:1044F0000220DFF8B01C0870AB480068AB490870B8
:1045000096E0AA480078242814DA27220521DFF84B
:104510008007FBF795FF00EE100AB8EEC00ADFF83F
:10452000880C80ED000A1FE0CA43FF1F982FFF1F71
:10453000482EFF1F9D480078272815DA9B480078F1
:10454000242811DB272299480078D0F1280109B2EC
:10455000DFF83C07FBF774FF00EE100AB8EEC00A64
:10456000DFF8440C80ED000ADFF83C0C90ED000A07
:10457000B5EE400AF1EE10FA5AD50020DFF82C1CF7
:104580000860DFF80C07B0F94E00032842DBDFF8C3
:10459000E416864A1278C82303FB0211411891F8E9
:1045A0009011DFF8D026814B1B78C82404FB03222E
:1045B000821892F88D21891A33291CDBDFF8B41692
:1045C0007A4A1278C82303FB0211411891F890111E
:1045D000972910DBDFF89C16744A1278C82303FB76
:1045E0000211411891F88D11962904DAC01EDFF8E6
:1045F000BC1B08600EE00021DFF8B02B1160401EEC
:10460000C3E700BFDC30FF1FD830FF1FE030FF1FC3
:10461000CF43FF1FDFF8940B0068002804D104206B
:10462000DFF8801B087003E00020DFF8781B0870BB
:104630005E4800785F490978401A0628C0F23A813E
:10464000DFF834060078012840F03481DFF8600B91
:104650000068002800F09480DFF8580BDFF8501B4A
:10466000096830F91100DFF84C1BB1F94E10401AFF
:1046700000EE100AB8EEC00ADFF8340B0068D0F183
:10468000270000EE900AF8EEE00A80EE200ADFF83C
:104690000C0B80ED000ADFF8180B0068454909781B
:1046A000401A05281DDBDFF80C0BDFF8041B096836
:1046B00010EB410030F90A0CDFF8F81ADFF8F02AA5
:1046C000126831F91210401A00EE100AB8EEC00A52
:1046D000F1EE040A80EE200ADFF8C40A80ED000A39
:1046E00021E0DFF8D00A3349097830F91100DFF80A
:1046F000C41ADFF8BC2A126831F91210401A00EE11
:10470000100AB8EEC00ADFF8A80A0068294909783B
:10471000401A00EE900AF8EEE00A80EE200ADFF878
:10472000800A80ED000ADFF8740A90ED000ADFF8D5
:10473000700AD0ED000A30EE600ABDEEC00A10EE3D
:10474000100A07F083FB0628C0F2B480DFF84C0A99
:1047500090ED000ADFF8480AD0ED000A20EE200AAA
:10476000B5EE400AF1EE10FA40F1A4800120DFF826
:10477000341A0870DFF8380A00680E49087099E0AA
:104780000C480078242817DA27220521DFF8240AAC
:10479000FBF756FE00EE100AB8EEC00ADFF8300D47
:1047A00080ED000A25E000BF582FFF1FB843FF1F10
:1047B0001004FF1FB943FF1FDFF8180D00782728EA
:1047C00017DADFF8100D0078242812DB2722DFF833
:1047D000080D0078D0F1280109B2DFF8D809FBF7FD
:1047E0002FFE00EE100AB8EEC00ADFF8E40C80EDF0
:1047F000000ADFF8DC0C90ED000AB5EE400AF1EE9D
:1048000010FA57DD0020DFF8D41C0860DFF8A40997
:10481000B0F94E00C5283DDADFF85814DFF8B42CA3
:104820001278C82303FB0211411891F89011DFF8A8
:104830004424DFF8A03C1B78C82404FB0322821820
:1048400092F89321891A33291EDBDFF82814DFF848
:10485000842C1278C82303FB0211411891F890119F
:10486000972911DBDFF80C14DFF8682C1278C823C5
:1048700003FB0211411891F89311962904DAC01C28
:10488000DFF8581C086005E00021DFF8502C1160AB
:10489000401CBFE7DFF8440C0068002806D1032065
:1048A000DFF80019087005E0D430FF1F0020DFF8A2
:1048B000F4180870DFF8280C0078012840F03484E0
:1048C000DFF8D0080078012840F02E84DFF8140CBF
:1048D000DFF8141C096850F82100012840F02484F6
:1048E000DFF8B4080078002807D10120DFF8FC1BAE
:1048F00008700020DFF8F81B0870DFF8F00B007874
:1049000000280DD0DFF890080078002808D001209A
:10491000DFF8DC1B087011E0CC30FF1F782FFF1F81
:10492000DFF8C80B0078002808D0DFF86C080078A2
:10493000002803D10020DFF8B81B0870CE480078AB
:10494000002800F0DE80DFF88C0B0078262877DA6C
:104950002722DFF8800B0078D0F1280109B2DFF8B8
:104960005408FBF76DFD00EE100AB8EEC00ADFF840
:10497000840B80ED000ADFF87C0B90ED000ADFED80
:10498000BF0AB4EE600AF1EE10FA04D5DFF8640B4A
:10499000DFF8641B0160DFF85C0B90ED000ADFEDCF
:1049A000B90AB4EE600AF1EE10FA03DBDFF8440B4B
:1049B000B4490160DFF81C0B0078801CDFF83C1B59
:1049C0000860DFF8380B0068002839D4DFF8040BE2
:1049D0000078DFF8281B0968401A801C00EE100AD6
:1049E000B8EEC00ADFF80C0BD0ED000AF1EE600A59
:1049F00020EE800AF2EE040A80EE200ADFF8B40707
:104A0000DFF8D01A097810EB4100B0F9040000EE8D
:104A1000900AF8EEE00A30EE200ABDEEC00A10EE71
:104A2000100ADFF89017DFF8D42A126821F8120074
:104A3000DFF8C80A0068401EDFF8C01A0860C0E747
:104A4000DFF854070078002829D0DFF8A40A00789E
:104A5000002824D11320DFF8A41A0860DFF89C0A8C
:104A60000068282880F26083DFF84807DFF88C1A96
:104A7000096830F811008549DFF8802A1268515C16
:104A800040188349DFF8742A126821F81200DFF811
:104A90006C0A0068401CDFF8641A0860DEE7DFF883
:104AA000F8060078002840F03F83DFF8440A0078D9
:104AB000002840F039831320DFF8401A0860DFF83F
:104AC0003C0A0068282880F22F83DFF8E806DFF828
:104AD0002C1A096830F811006C49DFF8202A126896
:104AE000515C401814306A49DFF8102A126821F826
:104AF0001200DFF8080A0068401CDFF8001A08609E
:104B0000DDE70020DFF80C1E08602520DFF8EC1937
:104B10000860DFF8E80900681428C0F2C980DFF8EF
:104B2000F80DB0F94E00DFF8F41D0860DFF8EC0D69
:104B300000680428C0F28C804E48DFF8C01909686C
:104B4000C82202FB0100DFF8D41D0968085C49494E
:104B5000DFF8A8291268C82303FB0211DFF8BC2D77
:104B60001268511811F8031C401A332864DB4148BD
:104B7000DFF888190968C82202FB0100DFF89C1DD4
:104B80000968085C3B49DFF874291268C82303FBF5
:104B90000211DFF8882D1268511811F8041C401A10
:104BA000332849DB3348DFF854190968C82202FB6F
:104BB0000100DFF8681D0968085C97283CDB2D4878
:104BC000DFF838190968C82202FB0100DFF84C1D24
:104BD0000968081810F8030C96282DDADFF8340D50
:104BE0000068002811D1DFF82C0D0068401CDFF8A8
:104BF000241D0860DFF81C0D0068012805D1DFF8CE
:104C0000FC080068DFF89C1D0860DFF8100D0068E4
:104C1000C01EDFF8A015DFF8E428126821F81200A2
:104C20000020DFF8B01808700120DFF87C1D087044
:104C30000EE000BFCD43FF1F0020DFF86C1D0870A1
:104C4000DFF8D80C0068401EDFF8D01C08606DE764
:104C5000DFF8540D0078002822D1DFF8B80C006886
:104C600001281DD1DFF894080068401CDFF86418A3
:104C700008701DE0080FFF1FBA43FF1F01004040EE
:104C80001C30FF1F00000C422030FF1F5404FF1F88
:104C90006842FF1F8C2FFF1F602FFF1F802FFF1FF9
:104CA000DFF858080068401EDFF85018086030E749
:104CB000DFF8F00C0068DFF8F41C0978401A0328CC
:104CC000C0F27F80DFF8DC0C026812B2DFF8D40C8F
:104CD0000068401CDFF8D41C0978411A09B2DFF8DB
:104CE000D404FBF7ADFB00EE100AB8EEC00ADFF803
:104CF000C00C80ED000ADFF8B80C90ED000ADFED83
:104D0000CC0AB4EE600AF1EE10FA04D5DFF8E4073D
:104D1000DFF8E4170160DFF8DC0790ED000ADFED53
:104D2000C50AB4EE600AF1EE10FA04DBDFF8C4073E
:104D3000DFF8801C0160DFF8740C0078801CDFF85D
:104D4000BC170860DFF8B4070068002839D4DFF822
:104D50005C0C0078DFF8A4170968401A801C00EE8C
:104D6000100AB8EEC00ADFF88C07D0ED000AF1EEA9
:104D7000600A20EE800AF2EE040A80EE200ADFF8D4
:104D80003404DFF8281C097810EB4100B0F9040066
:104D900000EE900AF8EEE00A30EE200ABDEEC00AFE
:104DA00010EE100ADFF80C14DFF85027126821F813
:104DB0001200DFF848070068401EDFF8401708605F
:104DC000C0E7DFF8D403007800282FD0DFF8440BC9
:104DD000006801282AD1DFF818070078002825D1BB
:104DE0001320DFF818170860DFF81007006828287C
:104DF00050DADFF8C003DFF80417096830F8110053
:104E0000DFF8BC1DDFF8F4261268515C4018DFF8AB
:104E1000B41DDFF8E826126821F81200DFF8DC067E
:104E20000068401CDFF8D4160860DDE7DA48007837
:104E300000282FD1DFF8DC0A006801282AD1DFF82A
:104E4000B0060078002825D11320DFF8B0160860DE
:104E5000DFF8A806006828281CDAD648DFF89C1678
:104E6000096830F81100DFF8581DDFF89026126845
:104E7000515C40181430DFF84C1DDFF880261268B2
:104E800021F81200DFF874060068401CDFF86C1689
:104E90000860DDE7DFF87C0A0068002840F0448104
:104EA000BD480078002840F02C810020DFF8181D54
:104EB00008602520DFF844160860DFF84006006827
:104EC0001428C0F2B980DFF8500AB0F94E00DFF8BC
:104ED0004C1A0860DFF8440A0068C42880F28C800D
:104EE000DFF8E80CDFF814160968C82202FB01009D
:104EF000DFF8281A0968085CDFF8D01CDFF8FC2509
:104F00001268C82303FB0211DFF8102A1268511837
:104F1000C978401A332863DBDFF8B00CDFF8DC1502
:104F20000968C82202FB0100DFF8F0190968085C73
:104F3000DFF8981CDFF8C4251268C82303FB0211B0
:104F4000DFF8D829126851180979401A332847DB4D
:104F5000DFF8780CDFF8A4150968C82202FB01000D
:104F6000DFF8B8190968085C972839DBDFF85C0CB2
:104F7000DFF888150968C82202FB0100DFF89C19D8
:104F800009680818C07896282ADADFF83C0C00680F
:104F9000002811D1DFF8300C0068401CDFF8281C15
:104FA0000860DFF8240C0068012805D1DFF84C0503
:104FB0000068DFF8F01D0860DFF860090068C01CB9
:104FC000DFF8001CDFF83425126821F812000020F9
:104FD000DFF8041508700120DFF8CC1D08700BE025
:104FE0000020DFF8C41D0870DFF830090068401C9D
:104FF000DFF8281908606DE7DFF8AC0D00780028AD
:105000000CD1DFF8C40B0068012807D1DFF8EC04ED
:105010000068401CDFF8C01408700DE0DFF8DC0405
:105020000068401EDFF8D414086046E7682FFF1FB1
:105030000100404000000C42DFF8680D0068DFF816
:1050400098140978401A03286EDBDFF8580D0268BF
:1050500012B2DFF8500D0068401CDFF87C140978AC
:10506000411A09B2DFF85C0BFBF7EAF900EE100A0F
:10507000B8EEC00ADFF8340D80ED000ADFF8240D29
:10508000006813282ADBDFF81C1D0968091A00EEE6
:10509000101AB8EEC00ADFF8141DD1ED000AF1EEC7
:1050A000600A20EE800AF2EE040A80EE200ADFF8A1
:1050B000141BDFF8F02C126831F9121000EE901A70
:1050C000F8EEE00A30EE200ABDEEC00A10EE101A2B
:1050D000DFF8F02A22F81010401ED2E7DFF8C40CE7
:1050E0000068132820DBDFF8DC1A31F81010DFF835
:1050F000D02A825C891A14392E4A22F81010401ED8
:10510000EFE7272013280FDBDFF8B81A31F810106B
:10511000DFF8AC2A825C891A1E39264A22F8101060
:10512000401EEFE7DF43FF1FDFF8B40300780128DC
:1051300040F0188417480078012840F01384DFF805
:10514000A403DFF8A413096850F82100002840F0F8
:105150000984DFF8700D0078002807D10120DFF8FE
:10516000681D08700020DFF8641D0870DFF8580D16
:105170000078002820D0DFF84C0D007800281BD0E4
:105180000120DFF8481D087024E000BFCE43FF1F58
:105190007C32FF1F7C04FF1FBB43FF1FF42EFF1F49
:1051A000F82EFF1FC243FF1F1430FF1FD032FF1F16
:1051B000542FFF1FA42EFF1FDFF80C0D00780028CE
:1051C00008D0DFF8000D0078002803D10020DFF8B8
:1051D000FC1C0870DFF8F40D0078002800F0CA808D
:1051E000BD48007826286EDA2722BB480078D0F127
:1051F000280109B2DFF8CC09FBF722F900EE100A0A
:10520000B8EEC00ADFF8C80D80ED000ADFF8C00D67
:1052100090ED000AF9EE0C0AB4EE600AF1EE10FA15
:1052200004DBDFF8AC0DDFF8AC1D0160DFF8A00D8A
:1052300090ED000ADFEDA50AB4EE600AF1EE10FA77
:1052400004D5DFF88C0DDFF8901D0160A2480078CE
:10525000801CAA490860A9480068002833D49E48E9
:105260000078A6490968401A801C00EE100AB8EEC2
:10527000C00ADFF85C0DD0ED000AF1EE600A20EE06
:10528000800AF2EE040A80EE200ADFF8380992491B
:10529000097810EB4100B0F9040000EE900AF8EE36
:1052A000E00A30EE200ABDEEC00A10EE100ADFF868
:1052B0001419924A126821F8120090480068401EA2
:1052C0008E490860C7E7DFF8FC0B0078002824D07F
:1052D000DFF8F80B007800281FD1132087490860F9
:1052E00086480068282880F23D83DFF8D808834983
:1052F000096830F81100DFF8C818804A1268515C5C
:10530000401ADFF8F01D7D4A126821F812007B4830
:105310000068401C79490860E2E7DFF8A80B0078D4
:10532000002840F01F83DFF8A40B0078002840F02D
:10533000198313207149086070480068282880F29A
:105340001183DFF880086D49096830F81100DFF833
:1053500070186A4A1268515C401A1438DFF8941DBC
:10536000664A126821F8120064480068401C6349CC
:105370000860E1E70020DFF89C15086025205F4900
:1053800008605E4800681428C0F2C280DFF8880513
:10539000B0F94E00DFF884150860DFF8800500687A
:1053A000C42880F28380DFF8240854490968C822A1
:1053B00002FB0100DFF864150968085CDFF80C18CF
:1053C0004E4A1268C82303FB0211DFF85025126809
:1053D0005118C978401A33285CDBDFF8F0074749D9
:1053E0000968C82202FB0100DFF830150968085C73
:1053F000DFF8D817414A1268C82303FB0211DFF80F
:105400001C25126851180979401A332842DBDFF84D
:10541000BC073A490968C82202FB0100DFF8FC1406
:105420000968085C972835DBDFF8A007334909686D
:10543000C82202FB0100DFF8E41409680818C078EC
:10544000962827DADFF8CC040068002810D1DFF8AE
:10545000C4040068401CDFF8BC140860DFF8B40422
:105460000068012804D125480068DFF8341E086070
:10547000DFF8A8040068C01CDFF848171F4A12684C
:1054800021F812000020144908700120DFF81819D3
:1054900008700BE00020DFF810190870DFF87C04BA
:1054A0000068401CDFF87414086076E7DFF8F8083D
:1054B0000078002824D1DFF85C04006801281FD19F
:1054C0000E480068401C0449087021E0FFFF03C239
:1054D0008C32FF1FB943FF1FB843FF1FD432FF1F99
:1054E000CA43FF1FB02FFF1F8004FF1FD243FF1FBF
:1054F000D143FF1FD42FFF1F0000A040982EFF1F95
:10550000DFF8D40D0068401EDFF8CC1D086038E7D6
:10551000DFF88C0D0068DFF8C41D0978401A0328F5
:10552000C0F27F80DFF8780D026812B2DFF8700DEC
:105530000068401CDFF8A41D0978411A09B2DFF8A1
:105540008406FAF77DFF00EE100AB8EEC00ADFF815
:10555000800A80ED000ADFF8780A90ED000AF9EE83
:105560000C0AB4EE600AF1EE10FA04DBDFF8600A10
:10557000DFF8601A0160DFF8580A90ED000ADFEDED
:10558000BC0AB4EE600AF1EE10FA04D5DFF8400A66
:10559000DFF84C1D0160DFF8440D0078801CDFF857
:1055A000381D0860DFF8300D0068002839D4DFF8B6
:1055B0002C0D0078DFF8201D0968401A801C00EED1
:1055C000100AB8EEC00ADFF8080AD0ED000AF1EEC2
:1055D000600A20EE800AF2EE040A80EE200ADFF86C
:1055E000E405DFF8F81C097810EB4100B0F904007D
:1055F00000EE900AF8EEE00A30EE200ABDEEC00A96
:1056000010EE100ADFF8BC15DFF8CC2C126821F878
:105610001200DFF8C40C0068401EDFF8BC1C0860F4
:10562000C0E7DFF8A008007800282ED0B94800684D
:1056300001282AD1DFF894080078002825D113200A
:10564000DFF8941C0860DFF8900C0068282851DA15
:10565000DFF87005DFF8801C096830F81100DFF80A
:105660006015DFF8742C1268515C401ADFF8841A58
:10567000DFF8642C126821F81200DFF85C0C006877
:10568000401CDFF8541C0860DDE7DFF838080078BC
:1056900000282FD19F48006801282BD1DFF82C0863
:1056A0000078002826D11320DFF82C1C0860DFF8D2
:1056B000280C006828281DDADFF80805DFF8181C18
:1056C000096830F81100DFF8F814DFF80C2C1268C4
:1056D000515C401A1438DFF81C1ADFF8FC2B1268F2
:1056E00021F81200DFF8F00B0068401CDFF8E81B1F
:1056F0000860DCE787480068002840F03381DFF865
:10570000C4070078002840F01D810020DFF89C1DB0
:1057100008602520DFF8C01B0860DFF8BC0B0068BC
:105720001428C0F2A7807C48B0F94E007B4908607D
:105730007A4800680428C0F28380DFF89004DFF81C
:10574000981B0968C82202FB010074490968085CBB
:10575000DFF87814DFF8802B1268C82303FB0211EE
:105760006E4A1268511811F8031C401A33285EDB88
:10577000DFF85804DFF8601B0968C82202FB01004B
:1057800066490968085CDFF84414DFF84C2B12689E
:10579000C82303FB0211614A1268511811F8041C56
:1057A000401A332843DBDFF82404DFF82C1B096898
:1057B000C82202FB010059490968085C972836DBBA
:1057C000DFF80804DFF8101B0968C82202FB01009B
:1057D00052490968081810F8030C962827DADFF8F0
:1057E000CC0C0068002811D1DFF8C00C0068401C08
:1057F000DFF8B81C0860DFF8B40C0068012805D198
:10580000DFF8D40A0068DFF8A81C08604348006885
:10581000C01EDFF8E018DFF8C02A126821F8120075
:1058200000206249087001205F49087008E00020EC
:105830005D49087039480068401E3849086077E7BC
:105840005948007800280BD1DFF8600C0068012867
:1058500006D1DFF8840A0068401C5449087009E04A
:10586000DFF8740A0068401EDFF86C1A086054E71D
:10587000FFFFEFC1DFF8380C00684C490978401A87
:1058800003286FDBDFF8280C026812B2DFF8200C67
:105890000068401C45490978411A09B2DFF85408EC
:1058A000FAF7CEFD00EE100AB8EEC00ADFF8580E87
:1058B00080ED000ADFF8F80B0068132830DBDFF812
:1058C000F01B0968091A00EE101AB8EEC00ADFF8DA
:1058D000381ED1ED000AF1EE600A20EE800AF2EEE9
:1058E000040A80EE200ADFF80C18DFF8C42B1268D7
:1058F00031F9121000EE901AF8EEE00A30EE200AAC
:10590000BDEEC00A10EE101ADFF8E82722F81010DA
:10591000401ED2E7F02FFF1F482EFF1F9C2EFF1FB7
:10592000DFF88C0B006813281CDBDFF8C81731F890
:105930001010A34A825C89181431A24A22F8101070
:10594000401EF0E7272013280CDBDFF8A81731F8FA
:1059500010109B4A825C89181E319A4A22F8101056
:10596000401EF0E7DFF8A40D0078012840F009811F
:10597000DFF89C0D0068D0F1270006281CDBDFF85B
:10598000900D0068021D12B20521DFF86807FAF7D2
:1059900057FD00EE100AB8EEC00ADFF8780D80ED72
:1059A000000A2AE0F42FFF1FBD43FF1FB943FF1F6A
:1059B000DC2FFF1F00001842DFF8540D0068D0F103
:1059C0002700012819DBDFF8480D0068D0F1270017
:1059D000062812DA2722DFF8380D0068D0F12801F6
:1059E00009B2DFF81007FAF72BFD00EE100AB8EE47
:1059F000C00ADFF8200D80ED000ADFF8140D006802
:105A0000801CDFF8D4180860DFF8CC080068002894
:105A100037D4DFF8E006DFF8F81C096810EB410026
:105A2000B0F9040000EE100AB8EEC00ADFF8E00C8E
:105A30000068DFF8A4180968401A801C00EE900A7C
:105A4000F8EEE00ADFF8CC0C90ED001A60EE810A67
:105A5000B2EE041AC0EE810A30EE200ABDEEC00A92
:105A600010EE100ADFF88C16DFF86C28126821F8A7
:105A70001200DFF864080068401EDFF85C18086058
:105A8000C2E7DFF858080078242852DA2722DFF826
:105A90004C080078D0F1280109B24A48FAF7D0FC46
:105AA00000EE100AB8EEC00ADFF8DC0D80ED000A47
:105AB000DFF828080078801CDFF81C180860DFF881
:105AC00018080068002801F1F1833E48DFF80C183F
:105AD000097810EB4100B0F9040000EE100AB8EEAE
:105AE000C00ADFF8A40DD0ED000AB2EE041AC0EE31
:105AF000810ADFF8E8070078DFF8DC170968401A48
:105B0000801C01EE100AB8EEC11A00EEC10ABDEE0B
:105B1000C00A10EE100A2B49DFF8BC27126821F8E2
:105B20001200DFF8B4070068401EDFF8AC17086009
:105B3000C5E7DFF8A8070078DFF89C170860DFF8F2
:105B400098070068002801F1B183DFF8A805DFF8A5
:105B50008817096830F811001949DFF87C271268A6
:105B6000515C40180C301749DFF86C27126821F897
:105B70001200DFF864070068401EDFF85C17086059
:105B8000DDE7DFF8880B0078022840F01181DFF8AC
:105B9000040E0068D0F12700062819DBDFF8F40DA9
:105BA0000068021D12B205210648FAF749FC00EE12
:105BB000100AB8EEC00ADFF8E00D80ED000A28E018
:105BC0005404FF1F6842FF1F0430FF1F080FFF1F10
:105BD000DFF8C00D0068D0F12700012819DBDFF8DD
:105BE000B40D0068D0F12700062812DA2722DFF86A
:105BF000A40D0068D0F1280109B2DFF8A00DFAF772
:105C00001FFC00EE100AB8EEC00ADFF88C0D80ED24
:105C1000000ADFF8800D0068801CDFF8BC16086001
:105C2000DFF8B4060068002837D4DFF8700DDFF81D
:105C3000641D096810EB4100B0F9040000EE100A81
:105C4000B8EEC00ADFF84C0D0068DFF88C16096862
:105C5000401A801C00EE900AF8EEE00ADFF8380DDA
:105C600090ED001A60EE810AB2EE041AC0EE810ACD
:105C700030EE600ABDEEC00A10EE100ADFF81C1DFF
:105C8000DFF85426126821F81200DFF84C0600688D
:105C9000401EDFF844160860C2E7DFF8EC0D00781C
:105CA000242855DA2722DFF8E00D0078D0F128010A
:105CB00009B2DFF84004FAF7C3FB00EE100AB8EEB1
:105CC000C00ADFF8C40B80ED000ADFF8BC0D0078D5
:105CD000801CDFF804160860DFF8FC050068002867
:105CE00001F1E482DFF80C04DFF89C1D097810EB69
:105CF0004100B0F9040000EE100AB8EEC00ADFF867
:105D0000880BD0ED000AB2EE041AC0EE810ADFF86B
:105D1000780D0078DFF8C0150968401A801C01EE84
:105D2000100AB8EEC11A00EEC10ABDEEC00A10EEAC
:105D3000100ADFF8C013DFF8A025126821F812005E
:105D4000DFF894050068401EDFF88C150860C3E793
:105D5000DFF8340D0078DFF880150860DFF878058B
:105D60000068002801F1A282DFF8300CDFF8681526
:105D7000096830F81100DFF8E81DDFF85C251268CB
:105D8000515C401A0C38DB49DFF84C25126821F8C9
:105D90001200DFF844050068401EDFF83C1508607B
:105DA000DCE700BF0830FF1FBC43FF1F1030FF1FA0
:105DB000DFF858090078032840F068850020DFF8F4
:105DC000A41D08600020DFF8A01D08602720DFF870
:105DD0009C1D0860C748B0F94E006430DFF8901D84
:105DE000086027200F2875DBC321DFF8842D126897
:105DF000914258DBDFF87C2DC82303FB00228A5C2C
:105E0000DFF8703DC82404FB0033CB18DB78D21ACE
:105E1000332A42DBDFF85C2DC82303FB00228A5CB7
:105E2000DFF8503DC82404FB0033CB181B79D21A8D
:105E3000332A32DBDFF83C2DC82303FB00228A5CC7
:105E4000972A2ADBDFF82C2DC82303FB00228A18AF
:105E5000D278962A21DADFF8102D1268002A0ED1A6
:105E6000DFF8042D1268521CDFF8FC3C1A60DFF8E2
:105E7000F82C1268012A02D1DFF8E82C1060C91C46
:105E8000DFF8182B22F810100F21DFF8E02C11603A
