:10000000F8FF0020110400000FE000000FE00000E6
:100010000FE000000FE000000FE000000FE0000024
:100020000FE000000FE000000FE000000FE0000014
:100030000FE000000FE000000FE000000FE0000004
:100040000FE000000FE000000FE000000FE00000F4
:10040000FFFFFFFFFFFFFFFFFFFFFFFFFEFFFFFFFD
:1004100062B613F03DFAFEE7012110F01F02914091
:1004200040B242095C4B43F822107047012110F0A2
:100430001F02914040B24209584B43F822107047C6
:10044000F8B504000D0016002DB2554805600020D7
:10045000544908600020544908600020534908604E
:1004600000205349086036B252480660514800687F
:1004700036B22DB2711B491C88422BDB49480068FB
:100480004C490968081847490860474800684949C5
:10049000096834F91110401843490860434800685E
:1004A00044490968434A126802FB01003F49086059
:1004B0003F4800683F4909683E4A126834F91220F3
:1004C00002FB01003A4908603A480068401E394979
:1004D0000860CBE7334800680BF020FB070030488A
:1004E00000680BF01BFB010038000BF03FFB3249AA
:1004F00008602D4800680BF011FB070028480068D1
:100500000BF00CFB010038000BF030FB2B490860AE
:10051000264800680BF002FB0700214800680BF03A
:10052000FDFA010038000BF021FB25490860204846
:1005300000680BF0F3FA0700194800680BF0EEFAB8
:10054000010038000BF012FB1E4908601A480168D0
:100550001A4800680BF088FB01001A4800680BF08D
:10056000EFFB19490BF080FB0700134801681248A4
:1005700000680BF079FB0100114800680BF0E0FB0C
:10058000010038000BF0F2FA0BF04EFC0F49086046
:100590000E480068F2BD000000E100E080E100E0EC
:1005A000CC3BFF1FA83BFF1FAC3BFF1FB03BFF1F17
:1005B000B43BFF1FB036FF1FB83BFF1FBC3BFF1F04
:1005C000C03BFF1FC43BFF1F00002041C83BFF1F73
:1005D000F8B5DFF8E80C007803284AF0DF83042040
:1005E000DFF8D81C08705FF0FF30DFF8D41C08601B
:1005F0005920FFF711FF0120DFF8C01C08700BF035
:10060000B1F80BF08FF90120DFF8B81C0870012059
:10061000DFF8B41C08700020DFF8B01C0870002060
:10062000DFF8AC1C08702720DFF8A81C0870272012
:10063000DFF8A41C0870DFF8A40C007800282FD184
:10064000DFF89C0C007801284ED1DFF8980C007878
:10065000002810D0012847D1DFF88C0C0068DFF8A3
:100660008C1C51F82000DFF8801C0968DFF8802C12
:1006700042F8210038E0DFF8700C0068DFF86C1CED
:1006800051F82000002801D1012000E00020C0B274
:10069000DFF8541C0968DFF8582C42F8210023E0E9
:1006A000DFF8400C0078002810D001281CD1DFF8BA
:1006B000380C0068DFF8341C51F82000DFF8281CE3
:1006C0000968DFF82C2C42F821000DE0DFF8180C47
:1006D0000068DFF8181C51F82000DFF80C1C0968CE
:1006E000DFF80C2C42F82100DFF8E40DB0F900002F
:1006F000092808DA0020DFF8CC1B08700820DFF892
:10070000D01D08800DE0DFF8C80DB0F90000BF284B
:1007100007DB0020DFF8B01B0870BF20DFF8B01D3A
:100720000880DFF8A00B007801285AD1DFF8180EF6
:100730000078DFF8181E097891F001010843C0B273
:1007400000284ED1DFF8880DB0F90000DFF8001E58
:100750000860DFF8FC0D0068082842DB41F678608D
:10076000DFF8EC1D0968DFF8EC2D8918405C41F6D4
:100770007161DFF8DC2D1268DFF8D83DD218895C92
:10078000401A332821DB41F67860DFF8C41D096880
:10079000DFF8C02D8918405C41F67061DFF8B02D9C
:1007A0001268DFF8B03DD218895C401A33280CDBA0
:1007B000DFF89C0D0068C01FDFF89C1DA1F84E00FB
:1007C0000120DFF8081B08700BE00020DFF8FC1A9E
:1007D0000870DFF87C0D0068401EDFF8741D0860AB
:1007E000B7E7DFF8E40A007801285AD1DFF8580D9E
:1007F0000078DFF8581D097891F001010843C0B274
:1008000000284ED1DFF8C80CB0F90000DFF8401D19
:100810000860DFF83C0D0068C02842DA41F67860D5
:10082000DFF82C1D0968DFF82C2D8918405C41F693
:100830007F61DFF81C2D1268DFF8183DD218895C43
:10084000401A332821DB41F67860DFF8041D09687F
:10085000DFF8002D8918405CDFF8F41C0968DFF828
:10086000F42C891811F5F4510978401A33280CDB5F
:10087000DFF8DC0C0068C01DDFF8CC1DA1F84E00CD
:100880000120DFF84C1A08700BE00020DFF8401A56
:100890000870DFF8BC0C0068401CDFF8B41C08606E
:1008A000B7E7DFF8200A0078012871D1DFF8980C4B
:1008B0000078DFF8981C097891F001010843C0B274
:1008C000002865D00020DFF8881C0860DFF8000CE5
:1008D000B0F900000938DFF8781C0968884257DB56
:1008E00041F67F60DFF8681C0968DFF8682C89181A
:1008F000405C41F67861DFF8582C1268DFF8543C10
:10090000D218895C401A332836DBDFF8440C0068C3
:10091000DFF8401C401810F5F450007841F679617A
:10092000DFF82C2C1268DFF82C3CD218895C401AB6
:10093000332821DB41F68160DFF8141C0968DFF8F9
:10094000142C8918405C41F67A61DFF8042C126897
:10095000DFF8003CD218895C401A33280CDBDFF842
:10096000F00B0068C01DDFF8F01BA1F84E0001205D
:10097000DFF8581908700BE00020DFF850190870F4
:10098000DFF8CC0B0068401CDFF8C41B08609DE753
:10099000DFF834090078012871D1DFF8AC0B00785A
:1009A000DFF8A81B097891F001010843C0B20028C4
:1009B00065D0C720DFF8981B0860DFF8940B00684B
:1009C000DFF80C1BB1F900100931884257DB41F602
:1009D0007160DFF87C1B0968DFF8782B8918405CB0
:1009E00041F67861DFF8682B1268DFF8683BD218AF
:1009F000895C401A332836DB41F67060DFF8501B03
:100A00000968DFF8502B8918405C41F67761DFF800
:100A1000402B1268DFF83C3BD218895C401A33281F
:100A200021DB41F66F60DFF8281B0968DFF8242B13
:100A30008918405C41F67661DFF8142B1268DFF804
:100A4000143BD218895C401A33280CDBDFF8000B0A
:100A50000068C01FDFF8F01BA1F84E000120DFF88E
:100A6000701808700BE00020DFF864180870DFF8D9
:100A7000E00A0068401EDFF8D81A08609DE7DFF83A
:100A80004C080078012818D1DFF8440800780028C5
:100A900013D1DFF8C40AB0F84E009430DFF8A81B79
:100AA000A1F84E00DFF8A00BB0F94E00C82804DA18
:100AB000C820DFF8941BA1F84E00DFF8100800787A
:100AC000002818D1DFF808080078012813D1DFF8D2
:100AD000780BB0F84E009438DFF87C1AA1F84E007D
:100AE000DFF8740AB0F94E00012804DB0020DFF8BB
:100AF000681AA1F84E00DFF8500BB0F94E00DFF88D
:100B0000581AB1F94E100818022190FBF1F0DFF8E5
:100B1000D41DA1F84E00DFF8CC0DB0F84E00DFF880
:100B2000B0190880DFF8A4070078012840F0A980F8
:100B3000DFF8140A0078DFF8141A097891F001013F
:100B40000843C0B2002840F09C802626002E00F109
:100B500098802820DFF8901D0860DFF88C0D006871
:100B6000002800F18280DFF8F00910EB4600B0F9B0
:100B70000200DFF8741D096801FA80F01B380028B4
:100B80006BD4DFF8D40910EB4600B0F90200DFF8AF
:100B9000581D096801FA80F01438C8285DDADFF8BA
:100BA000B80910EB4600B0F90200DFF83C1D0968F7
:100BB00001FA80F0C821DFF89C2901FB06214018CA
:100BC00010F8140CDFF8901911EB4601B1F902107E
:100BD000DFF8142D126802FA81F1C822DFF87439A7
:100BE00002FB0632891811F81B1C401A0BF03EF963
:100BF00002000B0014001D00D6F127000BF036F99F
:100C00005FF03332DFF8E43C0BF048F902000B00F0
:100C10000020DFF8DC1C0BF013FA22002B000BF095
:100C2000CFFA16D2DFF8300910EB46004088DFF823
:100C3000B81C096808181B38DFF81C1921F81600C1
:100C40000120DFF8141E08700020DFF88C160870F1
:100C50000BE00020DFF8001E0870DFF88C0C006845
:100C6000401EDFF8841C086077E7DFF8EC0D0078A1
:100C7000002804D1701CDFF86016087001E0761EB1
:100C800064E7DFF84C060078012840F0A980DFF81F
:100C9000B8080078DFF8B418097891F0010108432A
:100CA000C0B2002840F09C802626002E00F19880DB
:100CB0000020DFF8341C0860DFF82C0C00682928BD
:100CC00080F28280DFF8800910EB4600B0F9020064
:100CD000DFF8141C096801FA80F0143800286BD47E
:100CE000DFF8640910EB4600B0F90200DFF8F81BEA
:100CF000096801FA80F00D38C8285DDADFF8480984
:100D000010EB4600B0F90200DFF8DC1B096801FABD
:100D100080F0C821DFF83C2801FB0621401810F8BC
:100D2000140CDFF8241911EB4601B1F90210DFF8B9
:100D3000B82B126802FA81F1C822DFF8183802FBDA
:100D40000632891811F80D1C401A0BF08FF80200BA
:100D50000B0014001D00D6F127000BF087F85FF0A0
:100D60003332DFF8883B0BF099F802000B000020CB
:100D7000DFF87C1B0BF064F922002B000BF020FA4B
:100D800016D2DFF8C40810EB46004088DFF8581B85
:100D9000096808180D38DFF8B01821F8160001208E
:100DA000DFF8B81C08700020DFF8281508700BE089
:100DB0000020DFF8A81C0870DFF82C0B0068401C2E
:100DC000DFF8241B086077E7DFF8900C0078002834
:100DD00004D1701CDFF8FC14087001E0761E64E793
:100DE000DFF8E8040078012840F0A980DFF8580710
:100DF0000078DFF85817097891F001010843C0B274
:100E0000002800F09C802626002E00F1988000200B
:100E1000DFF8D41A0860DFF8D00A0068292880F2C9
:100E20008280DFF8340710EB4600B0F90200DFF8EB
:100E3000B81A096801FA80F00D38C8286BDADFF8B3
:100E4000180710EB4600B0F90200DFF89C1A096899
:100E500001FA80F0143800285DD4DFF8FC0610EBAE
:100E60004600B0F90200DFF8801A096801FA80F044
:100E7000C821DFF8E02601FB0621401810F80D0C10
:100E8000DFF8D41611EB4601B1F90210DFF8582A49
:100E9000126802FA81F1C822DFF8B83602FB063286
:100EA000891811F8141C401A0AF0E0FF02000B0028
:100EB00014001D00D6F127000AF0D8FF5FF033328E
:100EC000DFF8283A0AF0EAFF02000B000020DFF802
:100ED000201A0BF0B5F822002B000BF071F916D296
:100EE000DFF8740610EB46004088DFF8FC1909684B
:100EF00008180D38DFF8601621F816000120DFF819
:100F0000581B08700020DFF8D01308700BE0002099
:100F1000DFF8441B0870DFF8D0090068401CDFF8D8
:100F2000C819086077E7DFF8300B0078002804D193
:100F3000701CDFF8A413087001E0761E64E7DFF888
:100F400090030078012840F0A780DFF8FC050078C6
:100F5000DFF8F815097891F001010843C0B20028C4
:100F600000F09A802626002E00F196802820DFF8D7
:100F700078190860DFF870090068002800F18180A6
:100F8000DFF8C40610EB4600B0F90200DFF858198C
:100F9000096801FA80F01B3800286AD4DFF8A80637
:100FA00010EB4600B0F90200DFF83C19096801FABD
:100FB00080F01438C8285CDADFF88C0610EB4600A5
:100FC000B0F90200DFF82019096801FA80F0C821A1
:100FD000DFF8802501FB0621401810F81B0CDFF814
:100FE000681611EB4601B1F90210DFF8FC2812680F
:100FF00002FA81F1C822DFF85C3502FB063289185B
:1010000011F8141C401A0AF031FF02000B00140002
:101010001D00D6F127000AF029FF5FF03332DFF818
:10102000CC380AF03BFF02000B000020DFF8C018AC
:101030000BF006F822002B000BF0C2F815D2DFF8F7
:10104000080610EB46004088DFF89C18096808186D
:101050001B38DFF8F41521F816000120DFF8FC1921
:10106000087000209B4908700BE00020DFF8EC19A5
:101070000870DFF874080068401EDFF86C1808601C
:1010800078E7DFF8D8090078002803D1701C91496F
:10109000087001E0761E66E7DFF8B00400780028EB
:1010A00012D1DFF8440D0068DFF8401DB1F90010DF
:1010B000DFF83C2DB2F900205118022291FBF2F129
:1010C0000818DFF8241D0860DFF8280D00680028E4
:1010D0004ED1DFF878040078002849D181480078A3
:1010E000012814D1DFF8E80D0068DFF8E81D08805A
:1010F000DFF8F40C006840F21551884207DB01204C
:10110000DFF8481408700020DFF8DC1C0860754820
:101110000078002825D1DFF8C00D0088B0F5167FD3
:101120000DDBDFF8B40D008840F6B931884206DAED
:10113000DFF89C0D0068DFF89C1D088003E00020AC
:10114000DFF8901D0880DFF8A00C0068B0F5E16FB3
:1011500007DD0120DFF8F41308700020DFF8881C99
:101160000860DFF88007B0F94E00DFF8701D0860F6
:10117000DFF8800C0068012840F0D680DFF8CC034F
:101180000078002840F0D08056480078002840F0D1
:10119000CB80002108002621DFF8B4231160DFF89E
:1011A000B0130968132918DBDFF8A4130968DFF806
:1011B000302D891811F8131CDFF894231268DFF81A
:1011C000883433F9122002FB0100DFF88413096828
:1011D000491EDFF87C231160E1E7D22190FBF1F199
:1011E0001439DFF8F82C1160DFF8F81C09680029C1
:1011F00003D10021DFF8DC2C1180DFF8E81C09683E
:1012000001291BD1DFF8D01C0988B1F5167F11DB4D
:10121000DFF8C41C098840F6C41291420ADADFF8EC
:10122000B01C0968DFF8AC2C11800221DFF8B42C67
:10123000116003E00021DFF89C2C1180DFF8A81B6F
:101240000968B1F57A6F07DD0021DFF89C2B11608A
:101250000321DFF8902C1160DFF8881C096803294E
:1012600051D12049097800294DD118490978002920
:1012700040D12721B64A1160B5490968132916DB08
:10128000B3490968DFF8C02332F81110B04A126878
:10129000DFF8543CD25C891AAD4A1268AE4B23F891
:1012A0001210AB490968491EA94A1160E4E7DFF84A
:1012B000201C0968DFF81C2C118024E03804FF1F73
:1012C000A0B00440744BFF1F3C04FF1F704BFF1F76
:1012D000714BFF1F6E4BFF1F6F4BFF1FB414FF1F9F
:1012E0007C04FF1F1004FF1F8004FF1FC814FF1F92
:1012F000C837FF1F0121954A1170DFF8D41B096818
:10130000DFF8D02B11809149097800290CD0DFF843
:10131000A81D0978002907D10521DFF8A02D11703B
:101320000121DFF8942D117088480078002836D10B
:10133000DFF88C0D0068DFF8881D4860DFF89C0B33
:101340000068D0F16400DFF8781D0860DFF8700DE8
:1013500000680AF0E3FBDFF8101E09680AF084FC5D
:10136000DFF8081E0AF044FF0AF084FF04000D00B5
:10137000DFF84C0D0068DFF8481D4968401A0AF094
:1013800075FD0022DFF8F83D0AF088FD22002B00F1
:101390000AF098FF0BF00AF8DFF8E81D08806B48A8
:1013A0000078002809F066840020DFF8DC1D086062
:1013B000DFF8D80D0078012840F08C80DFF8F80CB9
:1013C0000078012840F086805F480078002840F0CF
:1013D000818011200F28C0F27D80DFF8001B096892
:1013E000DFF8042B825C022392FBF3F2891ADFF808
:1013F000F8241160DFF8E41A0968DFF8EC2A825C4F
:10140000022392FBF3F25118DFF8DC2412689142B8
:1014100054DBDFF8D4140968C8224E4B02FB0032BB
:10142000895CDFF8C4241268C8234A4C03FB0043DC
:10143000D218D278891A33292FDBDFF8AC14096867
:10144000C822444B02FB0032895CDFF89C241268FE
:10145000C823404C03FB0043D2181279891A332960
:101460001BDBDFF884140968C8223A4B02FB003208
:10147000895C972911DBDFF870140968C822354BA5
:1014800002FB00328918C978962906DADFF8F81CC1
:101490000968491CDFF8F02C1160DFF8EC1C0968C2
:1014A000132903DB0121284A117007E0DFF8381403
:1014B0000968491CDFF8302411609BE7224909784C
:1014C000002907D10021DFF8C02C1160401E81E700
:1014D0003A04FF1F1C48007800280ED0DFF8D80B14
:1014E0000078012809D1DFF8A80C006840F6B9316E
:1014F000884202DB002014490870DFF8080E0078EB
:1015000000283FD0DFF8B00B007800283AD1DFF890
:10151000C8090088B0F5E17F20DDDFF8BC0900884C
:1015200040F22721884219DA0B20DFF8901B08705F
:101530000120DFF8D41D08700120DFF8D01D0870ED
:101540000120014908701DE0974BFF1F8C04FF1F0D
:10155000B036FF1F2017FF1FBC36FF1FDFF8300C0F
:10156000006840F6AC5188420CDBDFF86C0900885B
:10157000FB2807DA0020DFF85C1908800020DFF87C
:10158000A81D0880DFF8A40D0078002812D0DFF82D
:10159000000C0068DFF85418B1F90010DFF850288B
:1015A000B2F900205118022291FBF2F10818DFF87D
:1015B000E01B0860DFF84C0D0078002809D0DFF848
:1015C000F80A0078002804D1FA20DFF8641D0860CA
:1015D00004E04FF47A70DFF8581D08600020DFF84F
:1015E000541D0870DFF8500D0078232805DADFF865
:1015F0004C0D00782328C0F27D81DFF8400D007883
:10160000DFF8341D0978401A0AF0FCFE052880F244
:101610007181DFF82C0D0078002840F06B81DFF835
:10162000240D0078012840F06581DFF8100D007866
:10163000DFF8041D0978884208D3DFF8FC0C007835
:10164000DFF8041D087007E0244AFF1FDFF8EC0CE8
:101650000078DFF8F41C0870DFF880084068002884
:1016600004D4DFF878084068C82847DBDFF8CC0CE2
:101670000078272814D0DFF8C00C007827280FD076
:10168000DFF8C80CB0F94E00DFF8C41CB1F94E10F9
:101690000818022190FBF1F0DFF8B81C08603DE06B
:1016A000DFF8980C007827280DD1DFF88C0C007833
:1016B000272808D0DFF8980CB0F94E006430DFF826
:1016C000941C08602AE0DFF8700C007827280DD100
:1016D000DFF8680C0078272808D0DFF8700CB0F924
:1016E0004E006438DFF86C1C086017E0DFF8680C07
:1016F000B0F90000DFF85C1C08600FE0DFF8DC07E1
:10170000406800280AD4DFF8D4074068C82805DA02
:10171000DFF8C8074068DFF83C1C08600020DFF8ED
:101720003C1C0860DFF89009007801284DD1DFF8F3
:10173000300C0068002848D1DFF8180C0068002839
:101740003FD4DFF8100C0068C8283ADA2720DFF809
:10175000141C0860DFF80C0C0068032835DBDFF888
:10176000F40B0068DFF8FC1B0968C822DFF8F83BBF
:1017700002FB0131405CDFF8DC1B0968DFF8E42B79
:101780001268C823DFF8E04B03FB02428918B1F569
:1017900016710978401A332807DBDFF8C80B006898
:1017A000C01EDFF8C81B08600FE00020DFF8BC1B7C
:1017B0000860DFF8B00B0068401EDFF8A81B086067
:1017C000C8E70020DFF8A41B0860DFF87C0B007876
:1017D000401E4549086044480068DFF86C1B0978E2
:1017E000091F8842C0F286800020DFF8841B087041
:1017F0000020DFF8701B0860DFF8680B0068C8285D
:101800001BDADFF8600B006837490968C822DFF887
:10181000583B02FB0131405C972806DBDFF8500B98
:101820000078401CDFF8481B0870DFF8380B0068B0
:10183000401CDFF8301B0860DEE7DFF8340B00786F
:10184000C3280ADB0020DFF8281B0870DFF80C0B28
:101850000068401CDFF8041B0860DFF8000B00681C
:10186000022838DBDFF8F80A0068002829D1DFF801
:1018700048080078012817D1DFF8F00A0068D0F195
:101880002700DFF8F01A0860DFF8E80A00680AF0BD
:10189000B9FD1A2815DB0120DFF8981A087001201D
:1018A000DFF8BC1A08600CE0DFF80C0800780028AC
:1018B00007D10120DFF87C1A08700120DFF8A01A98
:1018C0000860DFF89C0A0068022803D10320DFF8D3
:1018D000901A08600EE004480068401E0249086043
:1018E00079E700BF6036FF1FB436FF1F3333D33FA5
:1018F00000004940DFF8680A0068012824D1DFF8B9
:10190000780A0068DFF8E414B1F90010DFF8E02489
:10191000B2F900205118022291FBF2F10818DFF809
:10192000581A0860DFF8500A0068B0F5966F0BDBB4
:101930000220DFF82C1A08600020DFF83C1A08604B
:101940000020DFF8381A0870DFF8140A006803284E
:1019500025D1DFF8240A0068DFF89014B1F90010EF
:10196000DFF88C24B2F900205118022291FBF2F129
:101970000818DFF8041A0860DFF8FC09006840F274
:101980004C4188420BDB0020DFF8D41908600020AE
:10199000DFF8E41908600020DFF8E0190870DFF8CC
:1019A000C0090068012804D0DFF8B40900680328E2
:1019B00056D1DFF828054068082804DBDFF81C054D
:1019C0004068C0284CDBDFF874090078272814D061
:1019D000DFF86409007827280FD0DFF87009B0F924
:1019E0004E00DFF86C19B1F94E100818022190FB77
:1019F000F1F0DFF8FC1D08604CE0DFF840090078EA
:101A000027280DD1DFF830090078272808D0DFF823
:101A10004009B0F94E006430DFF8D41D086039E0A9
:101A2000DFF81409007827280DD1DFF810090078B5
:101A3000272808D0DFF81409B0F94E006438DFF821
:101A4000B01D086026E0DFF81009B0F90000DFF8EB
:101A5000A01D08601EE000BF734BFF1F724BFF1FED
:101A6000DFF8FC080068012804D0DFF8F4080068FB
:101A700003280FD1DFF86404406808280ADBDFF888
:101A80005C044068C02805DADFF850044068DFF8DD
:101A9000601D0860DFF8C8080068012805D0DFF87D
:101AA000C0080068032841F05481DFF8440D006845
:101AB0000828C1F24E81DFF8380D0068C02881F295
:101AC00048812720DFF82C1D08700020DFF88C18D3
:101AD0000860DFF874080078C01EDFF88818086016
:101AE000DFF880080068002800F19680DFF8000D1C
:101AF0000068DFF8041D0860DFF8FC0C00680828A7
:101B000072DBDFF8F40C0068DFF858180968C822A7
:101B1000DFF8543802FB0131405CDFF8DC1C096857
:101B2000DFF840281268C823DFF83C4803FB024274
:101B3000891811F8071C401A33284DDBDFF8B80C60
:101B40000068DFF820180968C822DFF81C3802FB9B
:101B50000131405C97283FDBDFF89C0C0068DFF820
:101B600004180968C822DFF8003802FB0131401868
:101B700010F8070C96282FDADFF87C0C0068DFF8E5
:101B8000E4170968C822DFF8E03702FB0131405C46
:101B9000DFF8641C0968DFF8CC271268C823DFF877
:101BA000C84703FB0242891811F8081C401A332861
:101BB00012DBDFF8A8070068401CDFF8A0170860F8
:101BC000DFF8340C0068C01FDFF898170968DFF8E9
:101BD000802722F8110007E0DFF81C0C0068401E87
:101BE000DFF8141C086087E7DFF870070068032837
:101BF0000AD10020DFF864170860DFF86807006882
:101C0000DFF8F01B087007E0DFF858070068401E97
:101C1000DFF85017086063E72720DFF8E01B087043
:101C20000020DFF838170860DFF81C070078C01EB6
:101C3000DFF830170860DFF82C070068002800F193
:101C40009380DFF8AC0B0068DFF8AC1B0860DFF8AE
:101C5000A80B0068C0286FDADFF89C0B0068DFF87B
:101C600004170968C822DFF8003702FB0131405C25
:101C7000DFF8841B0968DFF8EC261268C823DFF858
:101C8000E84603FB02428918C979401A33284BDB26
:101C9000DFF8640B0068DFF8CC160968C822DFF8AB
:101CA000C83602FB0131405C97283DDBDFF8480B6A
:101CB0000068DFF8B0160968C822DFF8AC3602FB0E
:101CC00001314018C07996282EDADFF82C0B006815
:101CD000DFF890160968C822DFF88C3602FB013164
:101CE000405CDFF8141B0968DFF878261268C82307
:101CF000DFF8744603FB02428918097A401A332838
:101D000012DBDFF858060068401CDFF85016086048
:101D1000DFF8E40A0068C01DDFF848160968DFF83C
:101D20002C2622F8110007E0DFF8CC0A0068401CDE
:101D3000DFF8C41A08608AE7DFF820060068032885
:101D40000AD10020DFF814160860DFF818060068D2
:101D5000DFF8A81A087007E0DFF808060068401EE0
:101D6000DFF80016086066E7DFF8900A0078DFF811
:101D7000841A0978401A0AF045FB082821DADFF8AE
:101D80007C0A0078DFF86C1A097888420CD2DFF8F8
:101D90006C0A0078DFF8681A0860DFF8600A0078DB
:101DA000DFF8601A086031E0DFF8480A0078DFF8F1
:101DB000541A0860DFF83C0A0078DFF8441A08601B
:101DC00024E0DFF8380A0078DFF8281A097888421A
:101DD00012D2DFF8200A0078DFF8241A0860002009
:101DE000DFF8201A086011E0903BFF1F644BFF1FD3
:101DF000624BFF1FD44AFF1FDFF8000A0078DFF8AC
:101E0000041A08600020DFF8F8190860DFF8F40908
:101E10000068DFF8EC1909680843002800F099878A
:101E2000DFF8DC090068002800F04C81DFF8C00909
:101E30000068DFF8C4190860DFF8BC0900680728EB
:101E40005CDBDFF8B4090068DFF8B4190968C82260
:101E5000DFF8143502FB0131405CDFF89C1909689A
:101E6000DFF89C291268C823DFF8FC4403FB024218
:101E7000891811F8071C401A332837DBDFF8780976
:101E80000068DFF87C190968C822DFF8DC3402FB3F
:101E90000131405C972829DBDFF85C090068DFF836
:101EA00060190968C822DFF8C03402FB013140180C
:101EB00010F8070C962819DADFF83C090068C01FF3
:101EC000DFF83C190968DFF8882422F8110015E0D2
:101ED000AC14FF1F664BFF1F0446FF1F1837FF1F80
:101EE0004004FF1F943BFF1F5404FF1FDFF8080945
:101EF0000068401EDFF8001908609DE72720DFF822
:101F000008190870DFF8F8080068401EDFF854145C
:101F10000860DFF850040068002800F1D380282012
:101F2000DFF8D4180860DFF8D0080068002800F156
:101F3000B080DFF830040068DFF8141411EB4000C3
:101F4000B0F90200DFF8B018096801FA80F014381F
:101F50000128C0F29680DFF80C040068DFF8F01367
:101F600011EB4000B0F90200DFF88C18096801FAA3
:101F700080F00D38C82880F28480DFF8E80300681C
:101F8000DFF8CC1311EB4000B0F90200DFF868185D
:101F9000096801FA80F0DFF8CC130968C822DFF87D
:101FA000C83302FB0131401810F80D0CDFF8B413F0
:101FB0000968DFF89C2312EB4101B1F90210DFF848
:101FC0003828126802FA81F1DFF898231268C823D2
:101FD000DFF8944303FB0242891811F8141C401ADD
:101FE00033284ADBDFF87C030068DFF8641311EB69
:101FF0004000B0F90200DFF80018096801FA80F02B
:10200000DFF860130968C822DFF85C3302FB013196
:10201000401810F80D0C97282FDBD2480068CC49E7
:1020200011EB4000B0F90200DFF8CC17096801FAA3
:1020300080F0CC490968C822CB4B02FB0131401823
:1020400010F8140C962818DAC6480068C04911EB3D
:1020500040004088DFF8A017096808181438C14903
:102060000968BB4A22F811000120DFF8A0170870A8
:102070000020DFF8941708700BE00020DFF88C17C1
:102080000870DFF874070068401EDFF86C170860FE
:1020900049E7DFF878070078002806D1B1480068E2
:1020A000401CDFF8641708700CE0AE480068401E62
:1020B000AC4908602DE700BF1004FF1F8E4BFF1FC7
:1020C0002837FF1FDFF83C070068002800F0608118
:1020D000DFF81C070068DFF820170860DFF8180732
:1020E0000068C12856DADFF810070068DFF8141717
:1020F0000968C8229C4B02FB0131405CDFF8F816EE
:102100000968DFF800271268C823974C03FB0242D6
:102110008918C979401A33282ADBDFF8DC06006801
:10212000DFF8E0160968C8228F4B02FB0131405CE2
:1021300097281DDBDFF8C0060068DFF8C8160968BD
:10214000C822894B02FB01314018C07996280FDA6A
:10215000DFF8A4060068C01DDFF8A81609687B4AEE
:1021600022F8110016E000BF1404FF1F0000BF4357
:10217000DFF884060068401CDFF87C160860ADE7D5
:102180000000E03F584BFF1F843BFF1F954BFF1F94
:10219000883BFF1F2720DFF8FC1D0870DFF864066E
:1021A0000068401E6F4908606E480068002800F112
:1021B000EF800020DFF840160860DFF83C0600687A
:1021C000292880F2A58067480068604911EB40002B
:1021D000B0F90200DFF82016096801FA80F01B3818
:1021E0000128C0F287805F480068584911EB400021
:1021F000B0F90200DFF80016096801FA80F014381F
:10220000C82877DA57480068504911EB4000B0F908
:102210000200DFF8E415096801FA80F05149096805
:10222000C822514B02FB0131401810F81B0C4D49DC
:102230000968464A12EB4101B1F90210DFF8B825EE
:10224000126802FA81F1474A1268C823464C03FB20
:102250000242891811F8141C401A332846DB414801
:1022600000683A4911EB4000B0F90200DFF8881528
:10227000096801FA80F03B490968C8223A4B02FB21
:102280000131401810F81B0C97282FDB35480068E7
:102290002E4911EB4000B0F90200DFF85C15096827
:1022A00001FA80F02F490968C8222F4B02FB013147
:1022B000401810F8140C962818DA2A4800682349A8
:1022C00011EB40004088DFF8301509680818143811
:1022D000244909681D4A22F811000120DFF8B81CC2
:1022E00008700020DFF8AC1C087011E00020DFF857
:1022F000A81C0870DFF800050068401CDFF8F8141F
:1023000008605AE7994BFF1F9A4BFF1F984BFF1F1E
:10231000DFF8840C0078002832D112480068401C95
:10232000DFF8701C087033E0EC13FF1F974BFF1FA2
:10233000E837FF1F754BFF1F6F4BFF1F6E4BFF1FD3
:102340007F4BFF1F7C04FF1F764BFF1F244AFF1F9C
:10235000BC36FF1FDC38FF1F3A04FF1FB836FF1FD3
:102360000C3AFF1FB036FF1F2017FF1F143AFF1F44
:10237000774BFF1F183AFF1F103AFF1F814BFF1FBB
:10238000DFF8180C0068401EDFF8101C08600BE72F
:10239000DFF874040078002800F0DE80DFF86004C5
:1023A0000068002800F0D880DFF858040068002892
:1023B0006FD1DFF84C0400681F286ADBDFF84004A7
:1023C0000068DFF8DC1B11EB400030F9060CDFF889
:1023D00030140968DFF8C82B12EB410131F9041CF5
:1023E00001FA80F0DFF818140968DFF8B42B12EB5B
:1023F000410131F9021C401ADFF804140968DFF8C2
:10240000A02B32F91110401A09F088FB5FF08141CE
:1024100009F0ACFBDFF88C1B0860DFF8E403006810
:10242000C01EDFF8781B0860DFF8700B006800281A
:1024300000F19280DFF8C8030068DFF8641B11EB3D
:10244000400030F9060C09F069FB0400DFF8B00326
:102450000068DFF8481B0968401AC01E09F05EFBDF
:10246000DFF8401B096809F0FFFB210009F0C0FEFE
:1024700009F0DAFCDFF8241B0968DFF8242B22F8C6
:102480001100DFF8180B0068401EDFF8101B086011
:10249000CAE7DD480078DFF8081B11EB4000B0F90F
:1024A0000200D9490978DFF8F82A32F9111001FA47
:1024B00080F0D5490978DFF8E82A12EB4101B1F93B
:1024C0000610401AD0490978DFF8D42A12EB4101EE
:1024D000B1F90410401A09F021FB5FF0814109F0C5
:1024E00045FBDFF8C01A0860C7480078C01CDFF859
:1024F000AC1A0860DFF8A40A006800282CD4C2488F
:102500000078DFF89C1A11EB4000B0F9060009F0E2
:1025100005FB0400BC480078DFF8801A0968401AFF
:10252000C01C09F0FBFADFF87C1A096809F09CFB73
:10253000210009F05DFE09F077FCDFF8601A0968F8
:10254000DFF85C2A22F81100DFF8500A0068401E0C
:10255000DFF8481A0860CDE7DFF8380A007800286D
:1025600000F0DB80A7480068002800F0D680A4486F
:102570000068002867D1A34800681F2863DBA148D2
:102580000068DFF8F41D11EB400030F9060C9D499E
:102590000968DFF8E42D12EB410131F9041C01FA5E
:1025A00080F098490968DFF8D02D12EB410131F92C
:1025B000021C401A93490968DFF8BC2D32F911104A
:1025C000401A09F0ABFA5FF0814109F0CFFADFF869
:1025D000D41908608B480068C01EDFF8C019086075
:1025E000DFF8B8090068002800F197808548006886
:1025F000DFF8841D11EB400030F9060C09F08EFA6B
:10260000040080480068DFF894190968401AC01E69
:1026100009F084FADFF88C19096809F025FB21001C
:1026200009F0E6FD09F000FCDFF870190968DFF831
:10263000482D22F81100DFF864090068401EDFF819
:102640005C190860CCE7DFF84C090078DFF8281D3A
:1026500011EB4000B0F90200DFF838190978DFF813
:10266000182D32F9111001FA80F0DFF828190978D5
:10267000DFF8042D12EB4101B1F90610401ADFF822
:1026800014190978DFF8F02C12EB4101B1F90410AC
:10269000401A09F043FA5FF0814109F067FADFF868
:1026A00004190860DFF8EC080078C01CDFF8EC18AB
:1026B0000860DFF8E808006800282ED4DFF8D408A6
:1026C0000078DFF8B41C11EB4000B0F9060009F007
:1026D00025FA0400DFF8BC080078DFF8C0180968A4
:1026E000401AC01C09F01AFADFF8B818096809F096
:1026F000BBFA210009F07CFD09F096FBDFF89C187D
:102700000968DFF8742C22F81100DFF890080068DF
:10271000401EDFF888180860CBE7DFF878080078FB
:1027200038490968891E884280F269810320DFF8F0
:102730009C1D08600020DFF8981D08600020DFF86D
:10274000941D08600020DFF8901D08600020DFF86D
:102750008C1D08602B480068DFF840180860DFF81F
:102760003C08006827490968891E884250DBDFF869
:10277000600D0068DFF8241809680818DFF8501D9C
:102780000860DFF8500D0068DFF810180968DFF8FE
:10279000E82B32F911104018DFF8381D0860DFF817
:1027A000380D0068DFF8F4170968DFF8F0271268C1
:1027B00002FB0100DFF8201D0860DFF8200D006833
:1027C000DFF8D8170968DFF8D4271268DFF8A83BCC
:1027D00033F9122002FB0100DFF8001D0860DFF86A
:1027E000BC070068401EDFF8B4170860B7E700BFF9
:1027F000283AFF1F7C4BFF1FB436FF1F7B4BFF1F88
:10280000203AFF1F243AFF1F794BFF1F734BFF1F16
:10281000DFF8BC0C006809F081F909F02BFD0022FB
:10282000DFF8BC3C09F03AFB04000D00DFF89C0C1B
:10283000006809F01BFB02000B002000290009F0D2
:10284000E5FD09F007FFDFF8481E0860DFF8840C9B
:10285000006809F063F909F00DFD0022DFF8803C03
:1028600009F01CFB04000D00DFF8600C006809F0A3
:10287000FDFA02000B002000290009F0C7FD09F055
:10288000E9FEDFF8101E0860DFF84C0C006809F064
:1028900045F909F0EFFC0022DFF8443C09F0FEFAAC
:1028A00004000D00DFF8240C006809F0DFFA0200D4
:1028B0000B002000290009F0A9FD09F0CBFEDFF88C
:1028C000241E0860DFF8140C006809F027F909F0ED
:1028D000D1FC0022DFF8083C09F0E0FA04000D000A
:1028E000DFF8E80B006809F0C1FA02000B002000D5
:1028F000290009F08BFD09F0ADFEDFF8EC1D086042
:10290000DFF88C0D0168DFF88C0D006809F0ACF978
:102910000100DFF8D40D006809F012FADFF8CC1DD1
:1029200009F0A2F90400DFF8680D0168DFF8600D16
:10293000006809F099F90100DFF8A80D006809F0B6
:10294000FFF90100200009F011F9DFF8A41D08606B
:10295000DFF89C0D0068DFF8941D09F007F9DFF837
:10296000941D0860DFF88C0D0068DFF88C1D09F0FD
:10297000B9FE07D3DFF87C0D0068DFF8801D09F091
:10298000C3FE04D85FF08040DFF8681D0860DFF800
:10299000700D0068DFF804160860DFF800060068B4
:1029A00028282CDADFF8580D0068DFF8CC1931F947
:1029B000100009F0B3F80400DFF8440D0068DFF8F8
:1029C000DC150968401A09F0A9F8DFF8281D096824
:1029D00009F04AF90100200009F0B2F909F024FADF
:1029E000DFF8B8150968DFF8902922F81100DFF840
:1029F000AC050068401CDFF8A4150860CDE7DFF8DF
:102A0000000E0078DFF8FC1D0968891E884280F2FC
:102A100053810320DFF8B41A08600020DFF8B01AF1
:102A200008600020DFF8AC1A08600020DFF8A81A60
:102A300008600020DFF8A41A0860DFF8C80D0068FD
:102A4000DFF858150860DFF854050068DFF8B41D9A
:102A50000968891E88423FDBDFF8740A0068DFF8E6
:102A60003C1509680818DFF8681A0860DFF8640A7E
:102A70000068DFF828150968DFF8242532F91110FD
:102A80004018DFF8501A0860DFF84C0A0068DFF8D9
:102A90000C150968DFF80425126802FB0100DFF855
:102AA000381A0860DFF8340A0068DFF8F0140968A3
:102AB000DFF8E8241268DFF8E83433F9122002FB6B
:102AC0000100DFF8181A0860DFF8D0040068401E23
:102AD000DFF8C8140860B6E7DFF8F409006809F009
:102AE0001DF809F0C7FB0022DFF8F43909F0D6F928
:102AF00004000D00DFF8D409006809F0B7F90200FE
:102B00000B002000290009F081FC09F0A3FDDFF88B
:102B1000801B0860DFF8BC09006808F0FFFF09F0BF
:102B2000A9FB0022DFF8B83909F0B8F904000D005C
:102B3000DFF89809006809F099F902000B002000FD
:102B4000290009F063FC09F085FDDFF8481B0860E7
:102B5000DFF88409006808F0E1FF09F08BFB002230
:102B6000DFF87C3909F09AF904000D00DFF85C0900
:102B7000006809F07BF902000B002000290009F031
:102B800045FC09F067FDDFF85C1B0860DFF84C09C5
:102B9000006808F0C3FF09F06DFB0022DFF8403940
:102BA00009F07CF904000D00DFF82009006809F045
:102BB0005DF902000B002000290009F027FC09F054
:102BC00049FDDFF8241B0860DFF8C40A0168DFF85C
:102BD000C40A006809F048F80100DFF80C0B00682F
:102BE00009F0AEF8DFF8041B09F03EF80400DFF846
:102BF000A00A0168DFF8980A006809F035F80100BA
:102C0000DFF8E00A006809F09BF80100200008F0F6
:102C1000ADFFDFF8941D0860DFF88C0D0068DFF869
:102C2000CC1A08F0A3FFDFF8841D0860DFF87C0DE4
:102C30000068DFF88C1D09F055FD07D3DFF86C0D37
:102C40000068DFF8801D09F05FFD04D8DFF8780D1B
:102C5000DFF8581D0860DFF8AC0B0068DFF83C13A4
:102C60000860CE480068282826DADFF8980B00684C
:102C7000CB4931F9100008F051FF0400DFF8840B54
:102C80000068C6490968401A08F048FFDFF81C1DB3
:102C9000096808F0E9FF0100200009F051F809F087
:102CA000C3F8BE490968BE4A22F81100BB48006853
:102CB000401CBA490860D4E7B6480078DFF8401AEB
:102CC0000968891E88421DDB0020B4490860B348AA
:102CD0000068282816DAB1480068B14931F81000B8
:102CE000AE490968DFF8E42C895C4018AB490968F3
:102CF000DFF8842622F81100A8480068401CA74984
:102D00000860E4E7DFF8F80A0078DFF8F81A0968E5
:102D1000891E88421DDB0020A04908609F4800688A
:102D2000282816DA9D480068DFF84C1631F81000A4
:102D30009A490968DFF8942C895C401A9749096818
:102D4000974A22F8110095480068401C9349086092
:102D5000E4E7DFF87C0C007801280DD1DFF8740C73
:102D60000068012804D0DFF86C0C0068032803D148
:102D70000320DFF8641C08700020DFF8601C086086
:102D80000020DFF85C1C08600020DFF8581C086099
:102D90000020DFF8541C08600020DFF8501C086099
:102DA0000020DFF84C1C08600020DFF8481C086099
:102DB0000020DFF8441C08600020DFF8401C086099
:102DC0000020DFF83C1C08600020DFF8381C086099
:102DD0000020DFF8341C08600020DFF8301C087089
:102DE0000020DFF82C1C0860DFF8280C0078012890
:102DF00005D0DFF8240C0078012841F0FF84DFF8CB
:102E00001C0C0078DFF8181C0978401A09F0FAFA4F
:102E100005280ADADFF8040C00780B2805DADFF859
:102E2000000C00780B28C1F2E984DFF8F80B007879
:102E3000012841F0E384252058490860574800687C
:102E4000DFF8D81B0978891C884247DB53480068A3
:102E5000534931F9100051490968514A12EB4101B7
:102E6000B1F90210884233DB4C4800684C4931F913
:102E700010004A4909684A4A12EB410131F9021C23
:102E8000884225DB45480068454911EB4000B0F910
:102E9000020042490968424A12EB4101B1F90410AB
:102EA000884215DB3D4800683D4911EB400030F990
:102EB000020C3A4909683A4A12EB410131F9041C03
:102EC000884205DB35480068DFF8101B086005E024
:102ED00032480068401E31490860AFE725202F497D
:102EE00008602E480068DFF8381B0978891C884282
:102EF0005ADB2A480068DFF8801411EB4000B0F973
:102F0000020026490968DFF8702432F9111088425E
:102F100039DB22480068DFF8601411EB400030F91B
:102F2000020C1E490968DFF8502432F9111088425A
:102F300029DB1A480068DFF8401411EB4000B0F9B3
:102F4000040016490968DFF8302412EB4101B1F999
:102F50000210884217DB11480068DFF81C1411EBDF
:102F6000400030F9040C0D490968DFF80C2412EB1D
:102F7000410131F9021C884205DB08480068DFF88E
:102F8000601A086010E005480068401E03490860A8
:102F9000A7E700BF7A4BFF1F724BFF1FB036FF1F22
:102FA000BC36FF1F1437FF1FDFF8700A00780B28AC
:102FB00005DADFF86C0A00780B28C1F2C381DFF86C
:102FC000580A0078012805D0DFF8480A007801285F
:102FD00041F0B881DFF84C0A0078012841F0B28155
:102FE000DFF8840D0078DFF8841D09780843DFF8E6
:102FF000801D09780843C0B2002841F0A381DFF8A2
:10300000D009007801280BD0DFF8C4090078002827
:1030100041F09881DFF8180E0078002801F09281C5
:10302000DFF8100E0078002841F08C81DFF8AC0941
:103030000068002800F0FC84DFF8A0090068DFF8D1
:10304000DC190978401A0228C0F2F284DFF88009FE
:103050000078012840F04682DFF8800900680838CF
:10306000002800F14D82DFF8B4090078DFF86C1910
:1030700009680839884280F21481DFF86009006825
:103080000838DFF89C190978884280F2D480DFF88C
:1030900090090078DFF81C1E31F91000DFF8801964
:1030A0000978B54A32F911100818022190FBF1F0A5
:1030B000C4285CDADFF824190968C822DFF8F83D73
:1030C00002FB01314118B1F5C8610978DFF80C291C
:1030D0001268C823DFF8E04D03FB02428218A2F217
:1030E0003D621278891A33293BDBDFF8F018096852
:1030F000C822DFF8C43D02FB01314118B1F5C861B7
:103100000978DFF8D8281268C823DFF8AC4D03FB34
:1031100002428218A2F23C621278891A332920DB1B
:10312000DFF8B8180968C822DFF88C3D02FB0131CE
:103130004118B1F5C8610978972912DBDFF89C18AE
:103140000968C822DFF8703D02FB01314118A1F285
:103150003D610978962904DAC01CDFF8601D08601B
:1031600005E0C721DFF8542D1160401CA0E7DFF80F
:10317000440DB0F94E008049B1F94E1008180221F3
:1031800090FBF1F0C4286CDADFF850180968C82207
:10319000DFF8243D02FB0131411891F89011DFF86E
:1031A0003C281268C823DFF8104D03FB0242821846
:1031B00092F89321891A332937DBDFF82018096840
:1031C000C822DFF8F43C02FB0131411891F890115C
:1031D000DFF808281268C823DFF8DC4C03FB024242
:1031E000821892F89421891A33291EDBDFF8EC1734
:1031F0000968C822DFF8C03C02FB0131411891F890
:103200009011972911DBDFF8D4170968C822DFF87D
:10321000A83C02FB0131411891F89311962904DA78
:10322000C01CDFF89C1C08601BE0C721DFF8902C55
:103230001160401CA6E7DFF8A40700684E4911EBB7
:10324000400030F9100CDFF8741C0860DFF88C07C0
:103250000068494911EB4000B0F90400DFF8601C38
:103260000860DFF8580C0068DFF870170968DFF8AD
:10327000442C12EB410131F9101C401ADFF8401CBC
:103280000968401ADFF854170968DFF8282C12EB98
:103290004101B1F9041000FA81F0DFF8C81D08609F
:1032A00004E1DFF878070078DFF8741709788842BE
:1032B00080F0C980DFF868070078DFF8F81B31F983
:1032C0001000DFF85C1709782B4A32F91110081842
:1032D000022190FBF1F0C42850DADFF8401709789A
:1032E000C822DFF8D43B02FB0131415CDFF82C2718
:1032F0001278C823DFF8C04B03FB02428218D27851
:10330000891A332931DBDFF814170978C822DFF86E
:10331000A83B02FB0131415CDFF800271278C8238B
:10332000DFF8944B03FB024282181279891A332981
:103330001BDBDFF8E8160978C822DFF87C3B02FBCC
:103340000131415C972910DBDFF8D0160978C822DB
:10335000DFF8643B02FB01314118C978962904DA91
:10336000C01CDFF8581B086008E0C721DFF84C2BB1
:103370001160401CAFE700BF244AFF1FDFF8340B89
:10338000B0F94E00DFF8D41DB1F94E100818022133
:1033900090FBF1F0C4286CDADFF840160968C82207
:1033A000DFF8143B02FB0131411891F89011DFF86E
:1033B0002C261268C823DFF8004B03FB0242821858
:1033C00092F89321891A332937DBDFF81016096840
:1033D000C822DFF8E43A02FB0131411891F890115C
:1033E000DFF8F8251268C823DFF8CC4A03FB024255
:1033F000821892F89421891A33291EDBDFF8DC1534
:103400000968C822DFF8B03A02FB0131411891F88F
:103410009011972911DBDFF8C4150968C822DFF87D
:10342000983A02FB0131411891F89311962904DA78
:10343000C01CDFF88C1A08601BE0C721DFF8802A67
:103440001160401CA6E7DFF8D4050078DFF80C1DFA
:1034500031F91000DFF8641A0860DFF880050068B1
:10346000DFF8F81C11EB4000B0F90400DFF8501A47
:103470000860DFF8480A0068DFF8A0150978DFF86F
:10348000342A32F91110401ADFF8341A0968401A48
:10349000DFF848150968DFF81C2A12EB4101B1F981
:1034A000041000FA81F0DFF8BC1B0860DFF8B40BF1
:1034B0000068142804DB0120DFF89C1D08701FE061
:1034C0000020DFF8941D08701AE000BFCC3BFF1FFE
:1034D000A83BFF1FAC3BFF1FB03BFF1FB43BFF1FD0
:1034E0000000F03FDFF8E8040078002808D1DFF89A
:1034F00040090078002803D00120DFF85C1D087027
:10350000DFF8540D0078002800F09282DFF8CC0438
:103510000068DFF8A01931F910003D30C72807DB3B
:103520008A20DFF8B8140968DFF8882922F811002A
:10353000DFF8A8040068DFF87C1931F91000DFF823
:103540009C140968C822DFF8703902FB0131401869
:10355000B0F57A7000789728C0F2D281DFF8B40411
:103560000078012840F0988000240020DFF8A81D92
:103570000860DFF868040068D0F12700062817DA31
:10358000DFF858040068D0F12700012810DB27225B
:10359000DFF848040068D0F1280109B2DFF8140907
:1035A000FCF74EFF08F0BAFADFF8701D086015E06E
:1035B000DFF828040068D0F1270006280EDBDFF8CA
:1035C0001C040068421D12B20521DFF8E808FCF770
:1035D00037FF08F0A3FADFF8441D0860DFF83C0D60
:1035E0000068002109F0A2F805D1DFF8340D006869
:1035F000DFF8281D08602725002D1FD4DFF8B40848
:10360000B0F94E0008F08AFA0600D5F1270008F05C
:1036100085FADFF8081D096808F026FBDFF8041DAD
:1036200008F0A4FA0100300008F08AFB08F0FCFB67
:10363000DFF8F41C21F815006D1EDDE7DFF8DC0C67
:103640000068DFF8DC1C08601E200B2818DBDFF8A0
:10365000DC1C411811F80B1CDFF8CC2C32F91020BF
:10366000DFF86833C35C9A18DFF8BC3C33F91030DC
:10367000D2185143022291FBF2F10C19401EE4E7EB
:10368000D22094FBF0F0DFF8901C0860C3E000BF8C
:10369000B83BFF1FBC3BFF1F00240020DFF8781C55
:1036A00008600020DFF8741C0860CC480068D0F186
:1036B0002700062826DAC9480068D0F1270001282B
:1036C00020DB2722C5480068D0F1280109B2DFF8C5
:1036D000E407FCF7B5FE08F021FADFF8401C0860AB
:1036E00024E000BFC03BFF1FC43BFF1F0000C842D7
:1036F000B039FF1FBC39FF1F0100003F676626403D
:10370000243AFF1FB5480068D0F1270006280DDBDA
:10371000B2480068421D12B20521DFF89807FCF795
:103720008FFE08F0FBF9DFF8F41B0860DFF8EC0B04
:103730000068002108F0FAFF05D1DFF8E40B00680B
:10374000DFF8D81B08602725002D1FD4DFF8640799
:10375000B0F94E0008F0E2F90600D5F1270008F0B4
:10376000DDF9DFF8B81B096808F07EFADFF8B41B52
:1037700008F0FCF90100300008F0E2FA08F054FB10
:10378000DFF8A41B21F815006D1EDDE7DFF88C0BB8
:103790000068DFF88C1B08602725002D1FD4DFF898
:1037A0001407B0F94E0008F0B9F90600D5F127006A
:1037B00008F0B4F9DFF8641B096808F055FADFF87F
:1037C000641B08F0D3F90100300008F0B9FA08F0E2
:1037D0002BFBDFF8541B21F815006D1EDDE71E20C2
:1037E0000B2811DBDFF8441B411811F80B1CDFF824
:1037F000382B32F9102002FB0144401EF0E700BFD5
:10380000794BFF1F203AFF1FD22094FBF0F03C3091
:10381000DFF8041B0860DFF8000B006803286FDB8B
:10382000DFF8F40A0068C5286ADADFF8EC0A0068F5
:10383000C01EDFF8E41A0968C91C814260DB6749D1
:103840000968491FDFF84C2D1160DFF8481D096831
:103850000D2941DBDFF83C1D0968C822DFF8583626
:1038600002FB0131415CDFF82C2D1268C823DFF820
:10387000484603FB02428218B2F516721278891A82
:10388000332921DBDFF80C1D0968C822DFF8283650
:1038900002FB0131415C972916DBDFF8F81C09684F
:1038A000C822DFF8143602FB01314118B1F5167158
:1038B0000978962908DA52490860DFF8D81C0968A7
:1038C000C91E484A116007E0DFF8C81C0968491E94
:1038D000DFF8C02C1160B8E74249096800290DD013
:1038E000404909680F2909DB3E4800683B490968DF
:1038F000401A08F087FD4049086001E0401C98E745
:103900003D48006808F07EFD0928C0F28D803A48E5
:10391000006808F077FD182880F286803848006833
:10392000401DC72802DBC2203549086034480068C2
:10393000401FDFF8601C086031480068401DDFF858
:10394000541C096888426FDBDFF8480C0068254981
:103950000968C822DFF8603502FB0131405C962817
:1039600004DA28480068401C264908602548006899
:103970000A281DDB0120DFF8BC1408700020DFF8E6
:10398000881D086012480078012803D109201249D7
:10399000087007E00E480078002803D10020DFF807
:1039A0009014087040E000BFB439FF1FB839FF1F02
:1039B000DFF8E00B0068401CDFF8D81B0860BBE7AD
:1039C000CCCC2CC0FEFFFFBE666606C05404FF1FB1
:1039D0001004FF1F0C3AFF1F8E4BFF1F6C37FF1F99
:1039E0007037FF1F7437FF1F7837FF1F8437FF1FA3
:1039F0008837FF1F9837FF1F9437FF1FA437FF1F1B
:103A0000A837FF1F7C37FF1F8037FF1F784BFF1F32
:103A10006837FF1F714BFF1F704BFF1F6F4BFF1F5E
:103A20006E4BFF1F7C04FF1F0020DFF82C1808706E
:103A3000DFF8B00D0068002800F08484DFF8A40DE2
:103A40000068DFF8A41D0978401A0228C0F27A84C1
:103A5000DFF8980D0078012840F03482DFF8840DFB
:103A600000680838002800F13B82DFF87C0D007800
:103A7000DFF8701D09680839884280F20D81DFF88F
:103A8000640D00680838DFF8681D0978884280F204
:103A9000CE80DFF85C0D0078DFF8181431F91000E3
:103AA000DFF84C1D0978DFF8B42632F91110081838
:103AB000022190FBF1F004285BDBDFF8281D096888
:103AC000C822DFF8F43302FB01314118B1F5C861B7
:103AD0000978DFF8102D1268C823DFF8DC4303FBF8
:103AE00002428218A2F243621278891A33293ADB21
:103AF000DFF8F01C0968C822DFF8BC3302FB013193
:103B00004118B1F5C8610978DFF8D82C1268C823CC
:103B1000DFF8A44303FB02428218A2F24462127847
:103B2000891A33291FDBDFF8BC1C0968C822DFF8BB
:103B3000883302FB01314118B1F5C8610978972932
:103B400011DBDFF8A01C0968C822DB4B02FB013146
:103B50004118A1F243610978962904DAC01EDFF802
:103B6000E41D086005E00021DFF8D82D1160401E3B
:103B7000A1E7D048B0F94E00DFF8E015B1F94E10DA
:103B80000818022190FBF1F0042866DBDFF8541CD2
:103B90000968C822C84B02FB0131411891F8901105
:103BA000DFF8402C1268C823C34C03FB0242821882
:103BB00092F88D21891A332933DBDFF8281C096834
:103BC000C822BD4B02FB0131411891F89011DFF87A
:103BD000142C1268C823B84C03FB0242821892F8D6
:103BE0008C21891A33291CDBDFF8F81B0968C822ED
:103BF000B14B02FB0131411891F89011972910DB6C
:103C0000DFF8E01B0968C822AB4B02FB0131411809
:103C100091F88D11962904DAC01EDFF8D01D0860D6
:103C20001BE00021DFF8C42D1160401EACE7DFF877
:103C3000B40B00689F4911EB400030F9100CDFF81D
:103C4000041D0860DFF89C0B00689A4911EB4000E6
:103C5000B0F90400DFF8941D0860DFF8880B0068F5
:103C6000DFF8F81411EB400030F9100CDFF8D41C29
:103C70000968401ADFF86C1B0968DFF8E02412EBD2
:103C80004101B1F90410401ADFF8601D09680818F5
:103C9000DFF85C1D0860FDE0DFF84C0B0078DFF812
:103CA000501B0978884280F0C780DFF8440B007809
:103CB000804931F91000DFF8381B0978DFF89C24BF
:103CC00032F911100818022190FBF1F0042851DBA1
:103CD000DFF8141B0978C822774B02FB0131415CE5
:103CE000DFF8042B1278C823734C03FB02428218BE
:103CF00012F8032C891A33292FDBDFF8EC1A097824
:103D0000C8226D4B02FB0131415CDFF8DC2A1278DE
:103D1000C823694C03FB0242821812F8042C891A4A
:103D200033291ADBDFF8C01A0978C822624B02FB7C
:103D30000131415C972910DBDFF8AC1A0978C82201
:103D40005D4B02FB0131411811F8031C962904DA7E
:103D5000C01EDFF8F01B08600CE00021DFF8E42B48
:103D60001160401EB2E700BF814BFF1F9C4BFF1F3D
:103D7000984BFF1F4F48B0F94E00DFF8E013B1F940
:103D80004E100818022190FBF1F0042868DBDFF8E0
:103D9000541A0968C822484B02FB0131411891F8B6
:103DA0009011DFF8402A1268C823434C03FB0242FB
:103DB000821892F88D21891A332933DBDFF8241A0F
:103DC0000968C8223C4B02FB0131411891F890115F
:103DD000DFF8102A1268C823374C03FB024282180E
:103DE00092F88C21891A33291CDBDFF8F81909684D
:103DF000C822314B02FB0131411891F890119729EB
:103E000010DBDFF8E0190968C8222B4B02FB0131F7
:103E1000411891F88D11962904DAC01EDFF8CC1BE9
:103E200008601DE00021DFF8C42B1160401EACE7E4
:103E3000824BFF1F7F4BFF1FDFF8AC0900781D4945
:103E400031F91000DFF8FC1A0860DFF89809006803
:103E5000184911EB4000B0F90400DFF8901B08602E
:103E6000DFF884090078BD4931F91000DFF8D41A71
:103E70000968401ADFF86C190968B84A12EB410169
:103E8000B1F90410401ADFF8641B09680818DFF85C
:103E9000601B0860DFF8580B0068142804DB012061
:103EA000DFF8B41308701BE00020DFF8AC130870D3
:103EB00016E000BFBC36FF1F2017FF1FE838FF1FAA
:103EC000E038FF1FDFF824090078002808D1DFF868
:103ED000980C0078002803D00120DFF87C130870CC
:103EE000DFF874030078002800F02C82DFF8F40873
:103EF00000689A4931F910003D38012806DA3D2062
:103F0000DFF8E0180968954A22F81100DFF8D408B4
:103F10000068924931F91000DFF8C8180968C82212
:103F2000DFF8483C02FB01314018B0F57A700078A8
:103F30009728C0F29581DFF8380C0078012840F00E
:103F4000938000240020DFF8D01308600020DFF801
:103F5000241C0860DFF88C080068D0F127000628D0
:103F600016DADFF880080068D0F1270001280FDB9F
:103F70002722DFF870080068D0F1280109B27748DD
:103F8000FCF75EFA07F0CAFDDFF8E81B086014E0F2
:103F9000DFF850080068D0F1270006280DDBDFF8B5
:103FA00044080068421D12B205216C48FCF748FA2B
:103FB00007F0B4FDDFF8BC1B0860DFF8B80B006841
:103FC000002108F0B3FB05D1DFF8AC0B0068DFF887
:103FD000A41B08602725002D1DD46048B0F94E00B1
:103FE00007F09CFD0600D5F1270007F097FDDFF8EC
:103FF000841B096807F038FECA4907F0B7FD0100C5
:10400000300007F09DFE07F00FFFDFF8701B21F86E
:1040100015006D1EDFE7DFF85C0B0068DFF8581B4A
:1040200008601E200B2817DBC049411811F80B1C33
:10403000DFF8482B32F91020DFF8443BC35CD21A7A
:10404000DFF8383B33F91030D2185143022291FB8C
:10405000F2F10C19401EE5E7D22094FBF0F0AE49D6
:10406000086083E08C37FF1F00240020AA49086005
:10407000DFF870070068D0F12700062816DADFF8AD
:1040800064070068D0F1270001280FDB2722DFF842
:1040900054070068D0F1280109B23048FCF7D0F984
:1040A00007F03CFDDFF8CC1A086014E0DFF83407B5
:1040B0000068D0F1270006280DDBDFF8280700682C
:1040C000421D12B205212548FCF7BAF907F026FD7A
:1040D000DFF8A01A0860DFF89C0A0068002108F0E9
:1040E00025FB05D1DFF8900A0068DFF8881A086020
:1040F0002725002D1DD41948B0F94E0007F00EFDFC
:104100000600D5F1270007F009FDDFF8681A0968F5
:1041100007F0AAFD834907F029FD0100300007F0F0
:104120000FFE07F081FEDFF8541A21F815006D1E0E
:10413000DFE7DFF8400A0068DFF83C1A08601E205D
:104140000B280DDB7949411811F80B1CDFF82C2ADC
:1041500032F9102002FB0144401EF1E7244AFF1F00
:10416000D22094FBF0F03C386B4908606A48006844
:10417000032875DB68480068C52871DA664800685E
:10418000C01C65490968C91E884269DBDFF85416FE
:104190000968491FDFF8FC231160DFF8F81309688C
:1041A0000D2941DBDFF8EC130968C822DFF8BC39C0
:1041B00002FB0131415CDFF8DC231268C823DFF821
:1041C000AC4903FB02428218B2F516721278891AC2
:1041D000332923DBDFF8BC130968C822DFF88C39E8
:1041E00002FB0131415C972918DBDFF8A81309684D
:1041F000C822DFF8783902FB01314118B1F5167198
:10420000097896290ADADFF8801D0860DFF8841340
:104210000968C91EDFF8742D116005E0DD490968E1
:10422000491EDC4A1160B8E7DFF8601D0968002903
:1042300014D0DFF8581D09680F290FDBDFF84C0D8B
:104240000068DFF8A0150968401A08F0DBF8DFF80D
:10425000401D086004E000BF834BFF1F401E90E735
:10426000DFF82C0D006808F0CDF8092866DBDFF8D0
:10427000200D006808F0C6F818285FDADFF8080D8E
:104280000068401F012803DA0520DFF8FC1C0860E5
:10429000DFF8F40C0068401DBE490860BD480068A6
:1042A000DFF8E41C0968491F884247DBB948006809
:1042B000DFF8D81C0968C822DFF8B03802FB0131EA
:1042C000405C962806DADFF8D40D0068401CDFF861
:1042D000CC1D0860DFF8C40D00680A2828DB012027
:1042E000DFF8BC1D08700020DFF81C140860DFF840
:1042F000FC040078012804D10920DFF8A81D08700B
:1043000008E0DFF8E8040078002803D10020DFF897
:104310005818087012E000BFD838FF1F3038FF1F50
:104320000439FF1F000020418838FF1F4004FF1F91
:1043300098480068401E97490860AFE70020DFF802
:10434000681D0870DFF8580D0078012800F05682CB
:10435000DFF8580D0068012800F05082DFF84C0D9E
:104360000068032800F04A82DFF8440D0078012835
:1043700040F04482DFF83C0D0078012840F01A81BB
:10438000DFF86C040078DFF860140978401A05281B
:10439000C0F21081DFF84C040068002800F088802B
:1043A000DFF840040068DFF8081E31F91000DFF87C
:1043B000001EB1F94E10401A07F0B0FB0400DFF800
:1043C00024040068D0F1270007F0A8FB01002000BA
:1043D00007F0CCFBDFF8DC1D0860DFF8080400689C
:1043E000DFF804140978401A05281ADBDFF8F40313
:1043F0000068DFF8BC1D11EB400030F90A0CDFF853
:10440000E4130968DFF8A82D32F91110401A07F0FB
:1044100085FBDFF8A41D07F0A9FBDFF8A01D0860ED
:1044200021E0DFF8C4030078DFF8841D31F91000C3
:10443000DFF8B0130968DFF8782D32F91110401A4F
:1044400007F06CFB0400DFF89C030068DFF89813AA
:104450000978401A07F062FB0100200007F086FB94
:10446000DFF8581D0860DFF84C0D0068DFF84C1DC0
:10447000096807F065FC07F0D7FC07F0C3FF0628C2
:10448000C0F29880DFF82C0D0168DFF8300D00686D
:1044900007F0EAFB002108F025F980F08B8002206C
:1044A000DFF81C1D0870CF480068CF49087081E014
:1044B000CD48007824280BDA27220521DFF8F00CFC
:1044C000FBF7BEFF07F02AFBDFF8341E086016E09A
:1044D000C5480078272812DAC348007824280EDB64
:1044E0002722C1480078D0F1280109B2DFF8C00CBA
:1044F000FBF7A6FF07F012FBDFF8041E0860DFF8E9
:10450000000E0068002108F0EDF853D20020DFF81B
:10451000F41D0860DFF8980CB0F94E0003283BDB6F
:10452000B1490978C822DFF8443602FB013141184D
:1045300091F89011AC4A1278C823DFF8304603FB9B
:104540000242821892F88D21891A33291CDBA64970
:104550000978C822DFF8143602FB0131411891F8BE
:104560009011972910DBA0490978C822DFF8FC35A3
:1045700002FB0131411891F88D11962904DAC01E11
:10458000DFF8801D086007E00021DFF8782D11605A
:10459000401EC3E7B036FF1FDFF8680D0068002833
:1045A00004D10420DFF8181C087003E00020DFF8B5
:1045B000101C08708C4800788D490978401A05282D
:1045C000C0F21C81DFF8A8050078012840F01681B0
:1045D000DFF8700D0068002800F08680DFF8640DB9
:1045E0000068DFF8641D31F91000DFF85C1DB1F9D7
:1045F0004E10401A07F092FA0400DFF8480D0068E8
:10460000D0F1270007F08AFA0100200007F0AEFA87
:10461000DFF8A01B0860DFF82C0D006874490978EA
:10462000401A05281ADBDFF81C0D0068DFF8181D9A
:1046300011EB400030F90A0CDFF8081D0968DFF8BB
:10464000082D32F91110401A07F068FADFF8681BDC
:1046500007F08CFADFF8641B08601FE064480078FC
:10466000DFF8E41C31F91000DFF8D81C0968DFF826
:10467000D82C32F91110401A07F050FA0400DFF874
:10468000C40C00685A490978401A07F047FA01003B
:10469000200007F06BFADFF8241B0860DFF8140B2A
:1046A0000068DFF8181B096807F04AFB07F0BCFB3D
:1046B00007F0A8FE0628C0F2A180DFF8F80A01681A
:1046C000DFF8F80A006807F0CFFA002108F00AF8CE
:1046D00080F094800120DFF8E81A0870DFF8640C9D
:1046E00000684349087089E04148007824280DDAC1
:1046F00027220521DFF8500CFBF7A2FE07F00EFA87
:10470000DFF8481C086018E0B037FF1F3848007811
:10471000272812DA3648007824280EDB2722324870
:104720000078D0F1280109B2DFF81C0CFBF788FEF5
:1047300007F0F4F9DFF8141C0860DFF8100C0068CB
:10474000002107F0E1FF59D20020DFF8041C0860C7
:10475000DFF8F40BB0F94E00C52839DA244909789E
:10476000C822DFF8083402FB0131411891F890119A
:104770001F4A1278C823DFF8F44303FB0242821871
:1047800092F89321891A33291CDB19490978C82228
:10479000DFF8D83302FB0131411891F890119729C5
:1047A00010DB13490978C822DFF8C03302FB01315E
:1047B000411891F89311962904DAC01CDFF8901B78
:1047C000086005E00021DFF8882B1160401CC3E77A
:1047D000DFF87C0B006800280CD10320DFF8E0191B
:1047E00008700BE07037FF1F6E4BFF1F1004FF1F98
:1047F0006F4BFF1F0020DFF8C8190870DFF8A00812
:104800000078012840F0C683DFF8A408007801286A
:1048100040F0C083DFF83C0B0068DFF83C1B51F828
:104820002000012840F0B683D1480078002800F02D
:10483000B880DFF8280B0078262856DADFF81C0B42
:104840000078821C12B20321DFF8FC0AFBF7F8FDA6
:1048500007F064F9DFF8EC1D0860DFF8E80D006888
:10486000DFF8E41D07F03EFF04D2DFF84C09DFF863
:10487000D41D0860DFF8CC0D0068DFF8D01D07F00C
:1048800043FF04D8DFF8C40DDFF8B81D0860DFF877
:10489000CC0A0078841C002C27D4DFF8C00A0078EA
:1048A000DFF8A41A11EB4000B0F9040007F036F964
:1048B0000500DFF8A80A0078801C001B07F02EF91D
:1048C000DFF8801D096807F0CFF9DFF8841D07F0D5
:1048D0004DF90100280007F033FA07F0A5FADFF8D8
:1048E000681A21F81400641ED5E7DFF8C8070078BD
:1048F000002829D00020DFF85C1D0860DFF8540D87
:104900000068282880F24683DFF8480D0068DFF849
:10491000381A31F81000DFF83C1D0968984A895CA4
:1049200040180A30DFF82C1D0968DFF8842822F8C7
:104930001100DFF8200D0068401CDFF8181D08602A
:10494000DCE700BFEC38FF1FDFF8680700780028BD
:1049500040F020830020DFF8FC1C0860DFF8F40C36
:104960000068282880F21683DFF8E80C0068DFF87A
:10497000D81931F81000DFF8DC1C0968804A895C1E
:1049800040181E30DFF8CC1C0968DFF8242822F814
:104990001100DFF8C00C0068401CDFF8B81C08608C
:1049A000DCE7DFF8B00D006805280BDBDFF8A40DAD
:1049B0000068C72806DADFF89C0D0068DFF8981D4C
:1049C00008601BE0DFF8940DB0F94E00052811DBFC
:1049D000DFF8880DB0F94E00C7280BDADFF87C0D40
:1049E000B0F94E00DFF8701D086007E0E438FF1FE3
:1049F0009037FF1F6420DFF8601D08600020DFF89B
:104A0000601D08602520DFF84C1C0860DFF8440CAE
:104A100000681428C0F2BE80DFF83C0D0068DFF8A3
:104A2000441D0860DFF83C0D00680428C0F289804E
:104A3000DFF8300D0068DFF81C1C0968C8224B4BFA
:104A400002FB0131405CDFF81C1D0968DFF8042C13
:104A50001268C823454C03FB0242891811F8031C55
:104A6000401A332861DBDFF8FC0C0068DFF8E41B38
:104A70000968C8223D4B02FB0131405CDFF8E41CB1
:104A80000968DFF8D02B1268C823384C03FB0242B8
:104A9000891811F8041C401A332846DBDFF8C40CCF
:104AA0000068DFF8B01B0968C822304B02FB0131F7
:104AB000405C972839DBDFF8AC0C0068DFF8941B0A
:104AC0000968C822294B02FB0131401810F8030C79
:104AD00096282ADADFF8880C0068002811D1DFF860
:104AE000800C0068401CDFF8781C0860DFF8700C50
:104AF0000068012805D1DFF85C0B0068DFF8681C4E
:104B00000860DFF8600C0068C01EDFF8481B096809
:104B1000DFF8342822F811001420DFF8501C086058
:104B20000120DFF84C1C08700BE00020DFF8401C6F
:104B30000870DFF8300C0068401EDFF8281C0860A1
:104B400070E7DFF82C0C007800281BD1DFF8100C80
:104B50000068012816D1DFF8FC0A0068401CDFF865
:104B60000C1C086016E000BF824BFF1F2017FF1FC0
:104B7000704BFF1F3438FF1F0039FF1F3838FF1FED
:104B80005404FF1FDFF8CC0A0068401EDFF8C41A87
:104B900008603BE7DFF8D00B0068DFF8D01B09683E
:104BA000401A03286EDBDFF8C00B026812B2DFF890
:104BB000B80B0068401CDFF8B41B0968411A09B241
:104BC000DFF88407FBF73CFC06F0A8FFDFF89C1D2C
:104BD0000860DFF8980D0068DFF86C1A07F082FDB6
:104BE00004D2DFF8D405DFF85C1A0860DFF8540A55
:104BF0000068DFF8581A07F087FD04D8DFF84C0A80
:104C0000DFF8401A0860DFF8640B0068801CDFF8EA
:104C1000441A0860DFF83C0A0068002832D4DFF844
:104C20004C0B0068DFF82C1A0968401A801C06F04B
:104C300075FFDFF8101A096807F016F8DFF8101A88
:104C400006F094FF0400DFF8240B0068DFF8F81684
:104C500011EB4000B0F9040006F060FF210007F0FE
:104C6000C7FA07F0E1F8DFF8EC190968DFF8D82691
:104C700022F81100DFF8DC090068401EDFF8D419C3
:104C80000860C7E7DFF82C04007800282AD0DFF896
:104C9000D00A0068012825D10020DFF8B819086083
:104CA000DFF8B009006828284DDADFF8A8090068A5
:104CB000DFF8941631F81000DFF898190968DFF86A
:104CC000B02C895C4018DFF88C190968DFF8E02403
:104CD00022F81100DFF87C090068401CDFF8741925
:104CE0000860DDE7DFF8CC03007800282BD1DFF87F
:104CF000700A0068012826D10020DFF858190860E2
:104D0000DFF85009006828281DDADFF84809006834
:104D1000DFF8341631F81000DFF838190968DFF8C9
:104D2000502C895C40181430DFF828190968DFF826
:104D3000802422F81100DFF81C090068401CDFF80D
:104D400014190860DCE7DFF8180A0068002840F052
:104D50002181D8480078002840F004810020DFF845
:104D6000D41D08600020DFF8D01D08600F20DFF898
:104D7000E4180860DFF8DC080068282880F2A380C7
:104D80000020DFF8E0190860DFF8D8090068C428BF
:104D900080F28780DFF8CC090068DFF8B81809686E
:104DA000C822DFF8983D02FB0131405CDFF8B419FE
:104DB0000968DFF8A0281268C823DFF8804D03FBDC
:104DC00002428918C978401A33285EDBDFF894095B
:104DD0000068DFF880180968C822DFF8603D02FB30
:104DE0000131405CDFF87C190968DFF86828126837
:104DF000C823DFF8484D03FB024289180979401A9D
:104E0000332842DBDFF85C090068DFF848180968DE
:104E1000C822DFF8283D02FB0131405C972834DBD3
:104E2000DFF840090068DFF82C180968C822DFF8AD
:104E30000C3D02FB01314018C078962825DADFF8D6
:104E4000F40C0068002811D1DFF8E80C0068401C61
:104E5000DFF8E01C0860DFF8DC0C0068012805D1F1
:104E6000DFF8F0070068DFF8D01C0860DFF8F4080E
:104E70000068C01CDFF8DC170968CD4A22F8110071
:104E80000120DFF8CC1D08700BE00020DFF8C01D0A
:104E90000870DFF8D0080068401CDFF8C818086008
:104EA00072E7DFF8900C0068012804D1DFF8A00D4C
:104EB0000078012807D0DFF89C070068401CDFF865
:104EC0009417086056E7DFF8700C0068002861D07E
:104ED000DFF8640C0068B64931F91000C73806F0F5
:104EE0001DFE0400DFF8500C0068273806F016FE9F
:104EF0000100200006F03AFEDFF8581D0860DFF8D8
:104F0000540D0068DFF8501D07F0ECFB04D2DFF809
:104F1000480DDFF8401D08602724002C3AD4D4F156
:104F2000270006F0FBFD0100DFF8280D006890F077
:104F3000004006F099FEDFF8241D07F059F906F04D
:104F400073FF9B4921F81400994830F81400DFF8EA
:104F5000201A615C401A1438DFF8EC1321F81400B1
:104F6000641EDAE72720002814D4914931F8101084
:104F7000DFF8FC29825C891A1E39DFF8CC2322F87D
:104F80001010401EEFE700BFA437FF1F7837FF1F48
:104F90009837FF1F42480078012840F0BD834448FD
:104FA0000078012840F0B883DFF8A8030068DFF834
:104FB000A81351F82000002840F0AE833D48007847
:104FC000002800F0CF80DFF8980D0078262873DAEB
:104FD000DFF88C0D0078821C12B203217448FBF7B5
:104FE0002FFA06F09BFDDFF87C1D0860DFF8740DDA
:104FF0000068DFF8741D07F087FB04D8DFF86C0D3C
:10500000DFF8601D0860DFF85C0D0068DFF8601DE8
:1050100007F068FB04D2DFF85C0DDFF8481D08607C
:10502000DFF83C0D0078801CDFF828160860DFF8F8
:105030002406006800283FD4DFF8240D00785C497E
:1050400011EB4000B0F9040006F068FD0400DFF841
:10505000100D0078DFF8FC150968401A801C06F076
:105060005DFDDFF8001D096806F0FEFDDFF8E015C4
:1050700006F07CFD0100200006F062FE06F0D4FE82
:10508000DFF8D01509684A4A22F81100DFF8C40594
:105090000068401EDFF8BC150860C8E78037FF1FB6
:1050A0007F4BFF1F8E4BFF1F834BFF1F0C3AFF1FD1
:1050B0007C04FF1F714BFF1FDFF8DC0D0078002818
:1050C00024D00020DFF88C150860DFF88805006820
:1050D000282880F22183DFF87C050068344931F804
:1050E0001000DFF870150968DFF88428895C401A21
:1050F000DFF860150968944A22F81100DFF85405BA
:105100000068401CDFF84C150860DEE7DFF8880D0A
:105110000078002840F000830020DFF83815086090
:10512000DFF830050068282880F2F682DFF82405D1
:1051300000681F4931F81000DFF818150968DFF81A
:105140003028895C401A1438DFF8081509687E4A4F
:1051500022F81100DFF8FC040068401CDFF8F414AA
:105160000860DDE7DFF8EC05006801280BDBDFF8FD
:10517000E4050068C32806DADFF8D8050068DFF820
:105180001C1D086022E0DFF8D405B0F94E000128AC
:1051900018DBDFF8C805B0F94E00C32812DADFF8D3
:1051A000BC05B0F94E00DFF8F41C08600EE000BF4B
:1051B000244AFF1F0C37FF1F0000A0401037FF1FBD
:1051C000784BFF1F6420DFF8D41C08600020DFF854
:1051D000901508602520DFF87C140860DFF874045F
:1051E00000681428C0F2C280DFF8B00C0068DFF855
:1051F00074150860DFF86C050068C42880F29080A0
:10520000DFF860050068DFF84C140968C822DFF891
:105210002C3902FB0131405CDFF848150968DFF8E2
:1052200034241268C823DFF8144903FB02428918AA
:10523000C978401A332867DBDFF828050068DFF8F3
:1052400014140968C822DFF8F43802FB0131405C0D
:10525000DFF810150968DFF8FC231268C823DFF8AF
:10526000DC4803FB024289180979401A33284BDBDA
:10527000DFF8F0040068DFF8DC130968C822DFF803
:10528000BC3802FB0131405C97283DDBDFF8D404D9
:105290000068DFF8C0130968C822DFF8A03802FBF5
:1052A00001314018C07896282EDADFF8B40400687F
:1052B000002811D1DFF8A8040068401CDFF8A01412
:1052C0000860DFF89C040068012805D1DFF884033A
:1052D0000068DFF8981D0860DFF888040068C01CCB
:1052E000DFF870130968DFF8882D22F81100142008
:1052F000DFF8801D08600120DFF8541908700FE006
:105300002C38FF1F603AFF1F0020DFF84419087097
:10531000DFF850040068401CDFF84814086069E7B3
:10532000DFF82C09007800281AD1DFF8340400686F
:10533000012815D1C7480068401CDFF8381D0860F7
:1053400014E000BF6C37FF1FBC36FF1F1C3AFF1F65
:10535000643AFF1F8004FF1FC837FF1F6F4BFF1FFA
:10536000BC480068401EBB49086037E7DFF8FC0C0A
:105370000068DFF8001D0968401A032867DBDFF8C2
:10538000EC0C026812B2DFF8E40C0068401CDFF895
:10539000E41C0968411A09B2DFF8D40CFBF750F895
:1053A00006F0BCFBDFF8BC190860DFF8B80900683C
:1053B000DFF8B41907F0A8F904D8DFF8B009DFF86E
:1053C000A4190860DFF89C090068DFF8AC1C07F03E
:1053D00089F904D2DFF8A40CDFF888190860DFF837
:1053E000940C0068801C9B4908609A48006800285B
:1053F0002DD4DFF8800C006896490968401A801C9B
:1054000006F08CFBDFF85C19096806F02DFC90496A
:1054100006F0ACFB0400DFF85C0C0068DFF8501C01
:1054200011EB4000B0F9040006F078FB210006F013
:10543000DFFE06F0F9FC87490968DFF8342C22F812
:10544000110084480068401E82490860CDE7DFF8FB
:10545000480A0078002822D0C148006801281ED1DF
:1054600000207C4908607B480068282840DA794899
:105470000068DFF8FC1B31F8100076490968DFF896
:10548000F024895C401A73490968DFF8BC2D22F8C2
:10549000110070480068401C6E490860E3E7DFF8BF
:1054A000F8090078002823D1AD48006801281FD1F1
:1054B00000206849086067480068282818DA6548AD
:1054C0000068DFF8AC1B31F8100062490968DFF8AA
:1054D000A024895C401A14385E490968DFF8682DF9
:1054E00022F811005B480068401C5A490860E2E756
:1054F0009B480068002840F00F81DFF89C09007885
:10550000002840F0F8800020DFF8401D08600020EF
:10551000DFF83C1D08600F204E4908604D480068C8
:10552000282880F29980C7208E4908608D4800683D
:10553000042877DB8B48006846490968C822DFF8F1
:10554000FC3502FB0131405C86490968414A12681A
:10555000C823DFF8E84503FB0242891811F8031C51
:10556000401A332855DB7F4800683A490968C82249
:10557000DFF8C83502FB0131405C7A490968354AD9
:105580001268C823DFF8B44503FB0242891811F8FA
:10559000041C401A33283CDB724800682D49096816
:1055A000C822DFF8983502FB0131405C972830DBD8
:1055B0006C48006827490968C822DFF8803502FB7B
:1055C0000131401810F8030C962822DADFF87C0C21
:1055D0000068002810D1DFF8740C0068401CDFF868
:1055E0006C1C0860DFF8640C0068012804D11948BD
:1055F0000068DFF85C1C08605A480068C01E154946
:105600000968DFF8442C22F811000120584908707D
:1056100008E000205649087052480068401E514971
:10562000086083E752480078012804D1DFF81C0C99
:105630000068012810D007480068401C0549086030
:105640006CE700BFEC37FF1F010040400000F04155
:1056500000002041B036FF1FDFF8F40B006800287F
:105660005AD0DFF8EC0B0068DFF8DC1B31F91000D2
:10567000401E06F053FA0400DFF8D40B0068273808
:1056800006F04CFA0100200006F070FADFF8201E48
:105690000860DFF81C0E00687FF07D5107F034F8D9
:1056A00004D8DFF8100EDFF8081E08602724002C4D
:1056B00032D4D4F1270006F031FADFF8F41D09687E
:1056C00006F0D2FA01005FF07E5006F039FB06F0DA
:1056D000ABFBDFF8741B21F81400DFF86C0B30F81B
:1056E0001400A349615C40181430DFF8841921F8D4
:1056F0001400641EDBE7272000280DD4DFF8481BC8
:1057000031F810109A4A825C89181E31DFF860293E
:1057100022F81010401EEFE7DFF89C0D00780128FA
:1057200040F00781DFF8940D0068D0F127000628CB
:1057300020DBDFF8880D0068021D12B20521DFF8BA
:10574000080BFAF77DFE06F0E9F9DFF8741D086032
:105750002EE000BF1837FF1F0839FF1F6036FF1FFC
:105760000838FF1FB436FF1F0C38FF1FFC38FF1F1F
:10577000734BFF1FDFF8440D0068D0F127000128AC
:1057800016DBDFF8380D0068D0F1270006280FDAA5
:105790002722DFF8280D0068D0F1280109B2DFF8D0
:1057A000A80AFAF74DFE06F0B9F9DFF8141D0860F3
:1057B000DFF8080D0068801CDFF8641E0860DFF861
:1057C000600E0068002833D4DFF8F00C0068DFF8C2
:1057D000781A11EB4000B0F9040006F09FF90400BC
:1057E000DFF8D80C0068DFF8381E0968401A801C02
:1057F00006F094F9DFF8C81C096806F035FADFF8FE
:10580000241E06F0B3F90100200006F099FA06F014
:105810000BFBDFF80C1E0968DFF82C2A22F81100B8
:10582000DFF8FC0D0068401EDFF8F41D0860C6E7D5
:10583000DFF82C050078242852DA2722DFF820052B
:105840000078D0F1280109B2DFF82408FAF7F8FD52
:1058500006F064F9DFF8D01D0860DFF80405007871
:10586000801CDFF8BC1D0860DFF8B40D006800285C
:1058700001F1E383DFF8E8040078DFF8F41711EBB7
:105880004000B0F9040006F049F90400DFF8980D73
:105890000068DFF8901D06F069F90500DFF8C00424
:1058A0000078DFF87C1D0968401A801C06F036F984
:1058B000290006F0D9F90100200006F041FA06F0AF
:1058C000B3FADFF85C1D0968DFF8A42722F811009D
:1058D000DFF84C0D0068401EDFF8441D0860C3E788
:1058E000DFF87C040078DFF8381D0860DFF8300D41
:1058F0000068002801F1A183DFF8240D0068DFF8BB
:10590000481931F81000DFF8181D0968184A895C39
:1059100040180C30DFF8081D0968DFF8542722F81A
:105920001100DFF8FC0C0068401EDFF8F41C086072
:10593000DCE7DFF8840B0078022840F00181DFF813
:10594000EC0D0068D0F12700062813DBDFF8DC0D32
:105950000068021D12B20521DFF81407FAF770FD86
:1059600006F0DCF8DFF8C81D086021E0F437FF1FFF
:105970005404FF1FDFF8B40D0068D0F127000128A0
:1059800016DBDFF8A80D0068D0F1270006280FDA33
:105990002722DFF8980D0068D0F1280109B2DFF85E
:1059A000D006FAF74DFD06F0B9F8DFF8841D08605F
:1059B000DFF8780D0068801CDFF8641C0860DFF8F1
:1059C000600C0068002833D4DFF8600D0068DFF851
:1059D000A01611EB4000B0F9040006F09FF8040097
:1059E000DFF8480D0068DFF8381C0968401A801C91
:1059F00006F094F8DFF8381D096806F035F9DFF88D
:105A0000241C06F0B3F80100200006F099F906F016
:105A10000BFADFF80C1C0968DFF8542622F8110095
:105A2000DFF8FC0B0068401EDFF8F41B0860C6E7D7
:105A3000DFF8EC0D0078242852DA2722DFF8E00D99
:105A40000078D0F1280109B2DFF8FC07FAF7F8FC7A
:105A500006F064F8DFF8D01B0860DFF8C40D0078AA
:105A6000801CDFF8BC1B0860DFF8B40B006800285E
:105A700001F1E382DFF8A80D0078DFF8CC1711EB15
:105A80004000B0F9040006F049F80400DFF8980B74
:105A90000068DFF8901B06F069F80500DFF8800D5C
:105AA0000078DFF87C1B0968401A801C06F036F885
:105AB000290006F0D9F80100200006F041F906F0AF
:105AC000B3F9DFF85C1B0968DFF87C2722F81100C6
:105AD000DFF84C0B0068401EDFF8441B0860C3E78A
:105AE000DFF83C0D0078DFF8381B0860DFF8300B7A
:105AF0000068002801F1A182DFF8240B0068DFF8BC
:105B0000701531F81000DFF8181B0968DFF8D42D84
:105B1000895C401A0C38DFF8081B0968DFF8282771
:105B200022F81100DFF8F80A0068401EDFF8F01ACA
:105B30000860DBE71C38FF1F2038FF1F2017FF1FFE
:105B4000DFF874090078032840F070850020DFF842
:105B5000B41D08600020DFF8B01D08602720DFF8C2
:105B6000AC1D0860DFF8E006B0F94E006430DFF8E5
:105B7000A01D086027200F2874DBC321DFF8902DBB
:105B80001268914256DBC822DFF8883D02FB0032E2
:105B90008A5CC823DFF87C4D03FB0043CB18DB781D
:105BA000D21A332A41DBC822DFF8683D02FB0032FB
:105BB0008A5CC823DFF85C4D03FB0043CB181B79DC
:105BC000D21A332A31DBC822DFF8483D02FB00320B
:105BD0008A5C972A29DBC822DFF8383D02FB0032B5
:105BE0008A18D278962A20DADFF81C2D1268002A4B
:105BF0000ED1DFF8142D1268521CDFF80C3D1A602C
:105C0000DFF8042D1268012A02D1DFF8F82C1060A9
:105C1000C91CDFF85C2422F810100F21DFF8EC2CEF
:105C2000116001210A4A117004E00022084B1A7029
:105C3000491EA3E706490978002911D1DFF8C81CDD
:105C4000096801290CD1401CDFF8C01C086009E07C
:105C5000724BFF1F2838FF1F0000C0400000474361
:105C6000401E88E7DFF8A00C0068012840F095800E
:105C70000020DFF8A41C08600020DFF8F41D086095
:105C80002720DFF8981C0860DFF8780C00680F28E0
:105C9000C0F20881DFF86C1C0968DFF8D42332F900
:105CA0001110042968DBC822DFF8683C02FB0032CF
:105CB0008A5CC823DFF85C4C03FB0043CB1813F865
:105CC000033CD21A332A44DBC822DFF8483C02FBEB
:105CD00000328A5CC823DFF83C4C03FB0043CB183E
:105CE00013F8043CD21A332A33DBC822DFF8243CF1
:105CF00002FB00328A5C972A2BDBC822DFF8143CB7
:105D000002FB00328A1812F8032C962A21DADFF8F7
:105D1000602D1268002A0ED1DFF8542D1268521C33
:105D2000DFF84C3D1A60DFF8482D1268012A02D1D5
:105D3000DFF8E42B1060C91EDFF80C2522F81010E4
:105D40000F21DFF8D82B11600121DFF88C2D1170A5
:105D500012E00022DFF8803D1A70491EA1E700BF63
:105D60006E4BFF1FF837FF1F0000E0C0000070C13E
:105D7000FFFF03C2000004C2DFF85C1D09780029A0
:105D800009D1DFF8EC1C0968012904D1401CDFF8B7
:105D90008C1B086086E0401E79E7DFF86C0B00681A
:105DA000002840F07F80DFF8780A0078052879DB4A
:105DB0000020DFF8BC1C08600020DFF85C1B0860D6
:105DC0002720DFF8581B0860DFF8540A0078801E8F
:105DD000002867D4C721DFF87024B2F94E20914221
:105DE0004ADBC822DFF82C3B02FB00328A5CC82366
:105DF000DFF8204B03FB0043CB1813F8033CD21A07
:105E0000332A33DBC822DFF80C3B02FB00328A5C0A
:105E1000972A2BDBC822DFF8FC3A02FB00328A18F3
:105E200012F8032C962A21DADFF8442C1268002A93
:105E30000ED1DFF83C2C1268521CDFF8343C1A609B
:105E4000DFF82C2C1268012A02D1DFF8CC2A10606E
:105E5000C91EDFF8F42322F810100021DFF8BC2A55
:105E600011600121DFF8702C117005E00022DFF8CD
:105E7000683C1A70491EAEE7DFF8F41B0968012977
:105E80000ED1DFF8541C0978002909D1401CDFF835
